{
  "contractName": "RailRoad",
  "abi": [
    {
      "inputs": [
        {
          "internalType": "address",
          "name": "_admin",
          "type": "address"
        },
        {
          "internalType": "uint256",
          "name": "_ticketPrice",
          "type": "uint256"
        }
      ],
      "stateMutability": "nonpayable",
      "type": "constructor"
    },
    {
      "inputs": [
        {
          "internalType": "string",
          "name": "",
          "type": "string"
        }
      ],
      "name": "TicketTypes",
      "outputs": [
        {
          "internalType": "bool",
          "name": "",
          "type": "bool"
        }
      ],
      "stateMutability": "view",
      "type": "function",
      "constant": true
    },
    {
      "inputs": [],
      "name": "admin",
      "outputs": [
        {
          "internalType": "address",
          "name": "",
          "type": "address"
        }
      ],
      "stateMutability": "view",
      "type": "function",
      "constant": true
    },
    {
      "inputs": [],
      "name": "adminPayble",
      "outputs": [
        {
          "internalType": "address payable",
          "name": "",
          "type": "address"
        }
      ],
      "stateMutability": "view",
      "type": "function",
      "constant": true
    },
    {
      "inputs": [
        {
          "internalType": "uint256",
          "name": "",
          "type": "uint256"
        }
      ],
      "name": "cards",
      "outputs": [
        {
          "internalType": "uint256",
          "name": "id",
          "type": "uint256"
        },
        {
          "internalType": "string",
          "name": "name",
          "type": "string"
        },
        {
          "internalType": "uint256",
          "name": "price",
          "type": "uint256"
        },
        {
          "internalType": "uint256",
          "name": "discount",
          "type": "uint256"
        },
        {
          "internalType": "string",
          "name": "image",
          "type": "string"
        },
        {
          "internalType": "string",
          "name": "description",
          "type": "string"
        },
        {
          "internalType": "address",
          "name": "owner",
          "type": "address"
        },
        {
          "internalType": "uint256",
          "name": "groupId",
          "type": "uint256"
        }
      ],
      "stateMutability": "view",
      "type": "function",
      "constant": true
    },
    {
      "inputs": [],
      "name": "groupId",
      "outputs": [
        {
          "internalType": "uint256",
          "name": "",
          "type": "uint256"
        }
      ],
      "stateMutability": "view",
      "type": "function",
      "constant": true
    },
    {
      "inputs": [
        {
          "internalType": "uint256",
          "name": "",
          "type": "uint256"
        }
      ],
      "name": "tickets",
      "outputs": [
        {
          "internalType": "string",
          "name": "ticketType",
          "type": "string"
        },
        {
          "internalType": "address",
          "name": "owner",
          "type": "address"
        }
      ],
      "stateMutability": "view",
      "type": "function",
      "constant": true
    },
    {
      "inputs": [],
      "name": "isAdmin",
      "outputs": [
        {
          "internalType": "bool",
          "name": "",
          "type": "bool"
        }
      ],
      "stateMutability": "view",
      "type": "function",
      "constant": true
    },
    {
      "inputs": [
        {
          "internalType": "string",
          "name": "name",
          "type": "string"
        },
        {
          "internalType": "uint256",
          "name": "price",
          "type": "uint256"
        },
        {
          "internalType": "uint256",
          "name": "count",
          "type": "uint256"
        },
        {
          "internalType": "uint256",
          "name": "discount",
          "type": "uint256"
        },
        {
          "internalType": "string",
          "name": "image",
          "type": "string"
        },
        {
          "internalType": "string",
          "name": "description",
          "type": "string"
        }
      ],
      "name": "createCard",
      "outputs": [
        {
          "components": [
            {
              "internalType": "uint256",
              "name": "id",
              "type": "uint256"
            },
            {
              "internalType": "string",
              "name": "name",
              "type": "string"
            },
            {
              "internalType": "uint256",
              "name": "price",
              "type": "uint256"
            },
            {
              "internalType": "uint256",
              "name": "discount",
              "type": "uint256"
            },
            {
              "internalType": "string",
              "name": "image",
              "type": "string"
            },
            {
              "internalType": "string",
              "name": "description",
              "type": "string"
            },
            {
              "internalType": "address",
              "name": "owner",
              "type": "address"
            },
            {
              "internalType": "uint256",
              "name": "groupId",
              "type": "uint256"
            }
          ],
          "internalType": "struct RailRoad.Card[]",
          "name": "",
          "type": "tuple[]"
        }
      ],
      "stateMutability": "nonpayable",
      "type": "function"
    },
    {
      "inputs": [],
      "name": "getMyCards",
      "outputs": [
        {
          "components": [
            {
              "internalType": "uint256",
              "name": "id",
              "type": "uint256"
            },
            {
              "internalType": "string",
              "name": "name",
              "type": "string"
            },
            {
              "internalType": "uint256",
              "name": "price",
              "type": "uint256"
            },
            {
              "internalType": "uint256",
              "name": "discount",
              "type": "uint256"
            },
            {
              "internalType": "string",
              "name": "image",
              "type": "string"
            },
            {
              "internalType": "string",
              "name": "description",
              "type": "string"
            },
            {
              "internalType": "address",
              "name": "owner",
              "type": "address"
            },
            {
              "internalType": "uint256",
              "name": "groupId",
              "type": "uint256"
            }
          ],
          "internalType": "struct RailRoad.Card[]",
          "name": "",
          "type": "tuple[]"
        }
      ],
      "stateMutability": "view",
      "type": "function",
      "constant": true
    },
    {
      "inputs": [],
      "name": "getAvailableCards",
      "outputs": [
        {
          "components": [
            {
              "internalType": "uint256",
              "name": "id",
              "type": "uint256"
            },
            {
              "internalType": "string",
              "name": "name",
              "type": "string"
            },
            {
              "internalType": "uint256",
              "name": "price",
              "type": "uint256"
            },
            {
              "internalType": "uint256",
              "name": "discount",
              "type": "uint256"
            },
            {
              "internalType": "string",
              "name": "image",
              "type": "string"
            },
            {
              "internalType": "string",
              "name": "description",
              "type": "string"
            },
            {
              "internalType": "address",
              "name": "owner",
              "type": "address"
            },
            {
              "internalType": "uint256",
              "name": "groupId",
              "type": "uint256"
            }
          ],
          "internalType": "struct RailRoad.Card[]",
          "name": "",
          "type": "tuple[]"
        }
      ],
      "stateMutability": "view",
      "type": "function",
      "constant": true
    },
    {
      "inputs": [],
      "name": "retrieveAllCards",
      "outputs": [
        {
          "components": [
            {
              "internalType": "uint256",
              "name": "id",
              "type": "uint256"
            },
            {
              "internalType": "string",
              "name": "name",
              "type": "string"
            },
            {
              "internalType": "uint256",
              "name": "price",
              "type": "uint256"
            },
            {
              "internalType": "uint256",
              "name": "discount",
              "type": "uint256"
            },
            {
              "internalType": "string",
              "name": "image",
              "type": "string"
            },
            {
              "internalType": "string",
              "name": "description",
              "type": "string"
            },
            {
              "internalType": "address",
              "name": "owner",
              "type": "address"
            },
            {
              "internalType": "uint256",
              "name": "groupId",
              "type": "uint256"
            }
          ],
          "internalType": "struct RailRoad.Card[]",
          "name": "",
          "type": "tuple[]"
        }
      ],
      "stateMutability": "view",
      "type": "function",
      "constant": true
    },
    {
      "inputs": [
        {
          "internalType": "uint256",
          "name": "id",
          "type": "uint256"
        }
      ],
      "name": "buyCard",
      "outputs": [
        {
          "components": [
            {
              "internalType": "uint256",
              "name": "id",
              "type": "uint256"
            },
            {
              "internalType": "string",
              "name": "name",
              "type": "string"
            },
            {
              "internalType": "uint256",
              "name": "price",
              "type": "uint256"
            },
            {
              "internalType": "uint256",
              "name": "discount",
              "type": "uint256"
            },
            {
              "internalType": "string",
              "name": "image",
              "type": "string"
            },
            {
              "internalType": "string",
              "name": "description",
              "type": "string"
            },
            {
              "internalType": "address",
              "name": "owner",
              "type": "address"
            },
            {
              "internalType": "uint256",
              "name": "groupId",
              "type": "uint256"
            }
          ],
          "internalType": "struct RailRoad.Card",
          "name": "card",
          "type": "tuple"
        }
      ],
      "stateMutability": "payable",
      "type": "function",
      "payable": true
    },
    {
      "inputs": [
        {
          "internalType": "uint256",
          "name": "id",
          "type": "uint256"
        },
        {
          "internalType": "address",
          "name": "userToGive",
          "type": "address"
        }
      ],
      "name": "giveCard",
      "outputs": [
        {
          "internalType": "bool",
          "name": "success",
          "type": "bool"
        }
      ],
      "stateMutability": "nonpayable",
      "type": "function"
    },
    {
      "inputs": [],
      "name": "ticketPriceAfterDiscount",
      "outputs": [
        {
          "internalType": "uint256",
          "name": "price",
          "type": "uint256"
        }
      ],
      "stateMutability": "view",
      "type": "function",
      "constant": true
    },
    {
      "inputs": [
        {
          "internalType": "string",
          "name": "typeTicket",
          "type": "string"
        }
      ],
      "name": "buyTicket",
      "outputs": [
        {
          "components": [
            {
              "internalType": "string",
              "name": "ticketType",
              "type": "string"
            },
            {
              "internalType": "address",
              "name": "owner",
              "type": "address"
            }
          ],
          "internalType": "struct RailRoad.Ticket",
          "name": "ticket",
          "type": "tuple"
        }
      ],
      "stateMutability": "payable",
      "type": "function",
      "payable": true
    },
    {
      "inputs": [],
      "name": "getMyTickets",
      "outputs": [
        {
          "components": [
            {
              "internalType": "string",
              "name": "ticketType",
              "type": "string"
            },
            {
              "internalType": "address",
              "name": "owner",
              "type": "address"
            }
          ],
          "internalType": "struct RailRoad.Ticket[]",
          "name": "",
          "type": "tuple[]"
        }
      ],
      "stateMutability": "view",
      "type": "function",
      "constant": true
    }
  ],
  "bytecode": "0x60806040523480156200001157600080fd5b506040516200392238038062003922833981810160405281019062000037919062000211565b816000806101000a81548173ffffffffffffffffffffffffffffffffffffffff021916908373ffffffffffffffffffffffffffffffffffffffff16021790555081600160006101000a81548173ffffffffffffffffffffffffffffffffffffffff021916908373ffffffffffffffffffffffffffffffffffffffff1602179055508060038190555060016004604051620000d190620002b3565b908152602001604051809103902060006101000a81548160ff0219169083151502179055506001600460405162000108906200031a565b908152602001604051809103902060006101000a81548160ff021916908315150217905550600160046040516200013f9062000381565b908152602001604051809103902060006101000a81548160ff021916908315150217905550505062000398565b600080fd5b600073ffffffffffffffffffffffffffffffffffffffff82169050919050565b60006200019e8262000171565b9050919050565b620001b08162000191565b8114620001bc57600080fd5b50565b600081519050620001d081620001a5565b92915050565b6000819050919050565b620001eb81620001d6565b8114620001f757600080fd5b50565b6000815190506200020b81620001e0565b92915050565b600080604083850312156200022b576200022a6200016c565b5b60006200023b85828601620001bf565b92505060206200024e85828601620001fa565b9150509250929050565b600081905092915050565b7f6275730000000000000000000000000000000000000000000000000000000000600082015250565b60006200029b60038362000258565b9150620002a88262000263565b600382019050919050565b6000620002c0826200028c565b9150819050919050565b7f747261696e000000000000000000000000000000000000000000000000000000600082015250565b60006200030260058362000258565b91506200030f82620002ca565b600582019050919050565b60006200032782620002f3565b9150819050919050565b7f7375627761790000000000000000000000000000000000000000000000000000600082015250565b60006200036960068362000258565b9150620003768262000331565b600682019050919050565b60006200038e826200035a565b9150819050919050565b61357a80620003a86000396000f3fe6080604052600436106100f35760003560e01c8063b6db75a01161008a578063eaefdbb911610059578063eaefdbb914610351578063ed92c4bb1461038e578063f851a440146103b9578063fa30b251146103e4576100f3565b8063b6db75a0146102a0578063bf87bf3c146102cb578063c70f5eaa146102f6578063e1d10d8514610326576100f3565b8063737acd0d116100c6578063737acd0d146101db57806379e4a5b7146102065780638dc1076814610231578063a0f44c9214610275576100f3565b80631626e7e5146100f857806350b44712146101355780635c743111146101735780635da8e107146101b0575b600080fd5b34801561010457600080fd5b5061011f600480360381019061011a9190612805565b610414565b60405161012c9190612b3e565b60405180910390f35b34801561014157600080fd5b5061015c60048036038101906101579190612b60565b6108c5565b60405161016a929190612be6565b60405180910390f35b34801561017f57600080fd5b5061019a60048036038101906101959190612c16565b6109a1565b6040516101a79190612c7a565b60405180910390f35b3480156101bc57600080fd5b506101c56109d7565b6040516101d29190612ca4565b60405180910390f35b3480156101e757600080fd5b506101f0610b07565b6040516101fd9190612ce0565b60405180910390f35b34801561021257600080fd5b5061021b610b2d565b6040516102289190612b3e565b60405180910390f35b34801561023d57600080fd5b5061025860048036038101906102539190612b60565b610f72565b60405161026c989796959493929190612cfb565b60405180910390f35b34801561028157600080fd5b5061028a611182565b6040516102979190612ca4565b60405180910390f35b3480156102ac57600080fd5b506102b5611188565b6040516102c29190612c7a565b60405180910390f35b3480156102d757600080fd5b506102e06111df565b6040516102ed9190612b3e565b60405180910390f35b610310600480360381019061030b9190612b60565b611501565b60405161031d9190612e4c565b60405180910390f35b34801561033257600080fd5b5061033b611989565b6040516103489190612f6d565b60405180910390f35b34801561035d57600080fd5b5061037860048036038101906103739190612fbb565b611c7f565b6040516103859190612c7a565b60405180910390f35b34801561039a57600080fd5b506103a3611e3d565b6040516103b09190612b3e565b60405180910390f35b3480156103c557600080fd5b506103ce612280565b6040516103db9190612ffb565b60405180910390f35b6103fe60048036038101906103f99190612c16565b6122a4565b60405161040b9190613053565b60405180910390f35b606060008054906101000a900473ffffffffffffffffffffffffffffffffffffffff1673ffffffffffffffffffffffffffffffffffffffff163373ffffffffffffffffffffffffffffffffffffffff16146104a4576040517f08c379a000000000000000000000000000000000000000000000000000000000815260040161049b906130c1565b60405180910390fd5b60005b8581101561061357600060405180610100016040528060058054905081526020018a8152602001898152602001878152602001868152602001858152602001600073ffffffffffffffffffffffffffffffffffffffff1681526020016002548152509050600581908060018154018082558091505060019003906000526020600020906008020160009091909190915060008201518160000155602082015181600101908051906020019061055d929190612547565b506040820151816002015560608201518160030155608082015181600401908051906020019061058e929190612547565b5060a08201518160050190805190602001906105ab929190612547565b5060c08201518160060160006101000a81548173ffffffffffffffffffffffffffffffffffffffff021916908373ffffffffffffffffffffffffffffffffffffffff16021790555060e08201518160070155505050808061060b90613110565b9150506104a7565b506002600081548092919061062790613110565b91905055506005805480602002602001604051908101604052809291908181526020016000905b828210156108b55783829060005260206000209060080201604051806101000160405290816000820154815260200160018201805461068c90613187565b80601f01602080910402602001604051908101604052809291908181526020018280546106b890613187565b80156107055780601f106106da57610100808354040283529160200191610705565b820191906000526020600020905b8154815290600101906020018083116106e857829003601f168201915b50505050508152602001600282015481526020016003820154815260200160048201805461073290613187565b80601f016020809104026020016040519081016040528092919081815260200182805461075e90613187565b80156107ab5780601f10610780576101008083540402835291602001916107ab565b820191906000526020600020905b81548152906001019060200180831161078e57829003601f168201915b505050505081526020016005820180546107c490613187565b80601f01602080910402602001604051908101604052809291908181526020018280546107f090613187565b801561083d5780601f106108125761010080835404028352916020019161083d565b820191906000526020600020905b81548152906001019060200180831161082057829003601f168201915b505050505081526020016006820160009054906101000a900473ffffffffffffffffffffffffffffffffffffffff1673ffffffffffffffffffffffffffffffffffffffff1673ffffffffffffffffffffffffffffffffffffffff1681526020016007820154815250508152602001906001019061064e565b5050505090509695505050505050565b600681815481106108d557600080fd5b90600052602060002090600202016000915090508060000180546108f890613187565b80601f016020809104026020016040519081016040528092919081815260200182805461092490613187565b80156109715780601f1061094657610100808354040283529160200191610971565b820191906000526020600020905b81548152906001019060200180831161095457829003601f168201915b5050505050908060010160009054906101000a900473ffffffffffffffffffffffffffffffffffffffff16905082565b6004818051602081018201805184825260208301602085012081835280955050505050506000915054906101000a900460ff1681565b6000806000905060005b600580549050811015610ad3573373ffffffffffffffffffffffffffffffffffffffff1660058281548110610a1957610a186131b8565b5b906000526020600020906008020160060160009054906101000a900473ffffffffffffffffffffffffffffffffffffffff1673ffffffffffffffffffffffffffffffffffffffff16148015610a9257508160058281548110610a7e57610a7d6131b8565b5b906000526020600020906008020160030154115b15610ac05760058181548110610aab57610aaa6131b8565b5b90600052602060002090600802016003015491505b8080610acb90613110565b9150506109e1565b506000606482600354610ae691906131e7565b610af09190613270565b905080600354610b0091906132a1565b9250505090565b600160009054906101000a900473ffffffffffffffffffffffffffffffffffffffff1681565b6060600080600090505b600580549050811015610bdf57600073ffffffffffffffffffffffffffffffffffffffff1660058281548110610b7057610b6f6131b8565b5b906000526020600020906008020160060160009054906101000a900473ffffffffffffffffffffffffffffffffffffffff1673ffffffffffffffffffffffffffffffffffffffff1603610bcc578180610bc890613110565b9250505b8080610bd790613110565b915050610b37565b5060008167ffffffffffffffff811115610bfc57610bfb6126a4565b5b604051908082528060200260200182016040528015610c3557816020015b610c226125cd565b815260200190600190039081610c1a5790505b509050600080600090505b600580549050811015610f6857600073ffffffffffffffffffffffffffffffffffffffff1660058281548110610c7957610c786131b8565b5b906000526020600020906008020160060160009054906101000a900473ffffffffffffffffffffffffffffffffffffffff1673ffffffffffffffffffffffffffffffffffffffff1603610f555760058181548110610cda57610cd96131b8565b5b90600052602060002090600802016040518061010001604052908160008201548152602001600182018054610d0e90613187565b80601f0160208091040260200160405190810160405280929190818152602001828054610d3a90613187565b8015610d875780601f10610d5c57610100808354040283529160200191610d87565b820191906000526020600020905b815481529060010190602001808311610d6a57829003601f168201915b505050505081526020016002820154815260200160038201548152602001600482018054610db490613187565b80601f0160208091040260200160405190810160405280929190818152602001828054610de090613187565b8015610e2d5780601f10610e0257610100808354040283529160200191610e2d565b820191906000526020600020905b815481529060010190602001808311610e1057829003601f168201915b50505050508152602001600582018054610e4690613187565b80601f0160208091040260200160405190810160405280929190818152602001828054610e7290613187565b8015610ebf5780601f10610e9457610100808354040283529160200191610ebf565b820191906000526020600020905b815481529060010190602001808311610ea257829003601f168201915b505050505081526020016006820160009054906101000a900473ffffffffffffffffffffffffffffffffffffffff1673ffffffffffffffffffffffffffffffffffffffff1673ffffffffffffffffffffffffffffffffffffffff168152602001600782015481525050838381518110610f3b57610f3a6131b8565b5b60200260200101819052508180610f5190613110565b9250505b8080610f6090613110565b915050610c40565b5081935050505090565b60058181548110610f8257600080fd5b9060005260206000209060080201600091509050806000015490806001018054610fab90613187565b80601f0160208091040260200160405190810160405280929190818152602001828054610fd790613187565b80156110245780601f10610ff957610100808354040283529160200191611024565b820191906000526020600020905b81548152906001019060200180831161100757829003601f168201915b50505050509080600201549080600301549080600401805461104590613187565b80601f016020809104026020016040519081016040528092919081815260200182805461107190613187565b80156110be5780601f10611093576101008083540402835291602001916110be565b820191906000526020600020905b8154815290600101906020018083116110a157829003601f168201915b5050505050908060050180546110d390613187565b80601f01602080910402602001604051908101604052809291908181526020018280546110ff90613187565b801561114c5780601f106111215761010080835404028352916020019161114c565b820191906000526020600020905b81548152906001019060200180831161112f57829003601f168201915b5050505050908060060160009054906101000a900473ffffffffffffffffffffffffffffffffffffffff16908060070154905088565b60025481565b60008060009054906101000a900473ffffffffffffffffffffffffffffffffffffffff1673ffffffffffffffffffffffffffffffffffffffff163373ffffffffffffffffffffffffffffffffffffffff1614905090565b606060008054906101000a900473ffffffffffffffffffffffffffffffffffffffff1673ffffffffffffffffffffffffffffffffffffffff163373ffffffffffffffffffffffffffffffffffffffff161461126f576040517f08c379a0000000000000000000000000000000000000000000000000000000008152600401611266906130c1565b60405180910390fd5b6005805480602002602001604051908101604052809291908181526020016000905b828210156114f8578382906000526020600020906008020160405180610100016040529081600082015481526020016001820180546112cf90613187565b80601f01602080910402602001604051908101604052809291908181526020018280546112fb90613187565b80156113485780601f1061131d57610100808354040283529160200191611348565b820191906000526020600020905b81548152906001019060200180831161132b57829003601f168201915b50505050508152602001600282015481526020016003820154815260200160048201805461137590613187565b80601f01602080910402602001604051908101604052809291908181526020018280546113a190613187565b80156113ee5780601f106113c3576101008083540402835291602001916113ee565b820191906000526020600020905b8154815290600101906020018083116113d157829003601f168201915b5050505050815260200160058201805461140790613187565b80601f016020809104026020016040519081016040528092919081815260200182805461143390613187565b80156114805780601f1061145557610100808354040283529160200191611480565b820191906000526020600020905b81548152906001019060200180831161146357829003601f168201915b505050505081526020016006820160009054906101000a900473ffffffffffffffffffffffffffffffffffffffff1673ffffffffffffffffffffffffffffffffffffffff1673ffffffffffffffffffffffffffffffffffffffff16815260200160078201548152505081526020019060010190611291565b50505050905090565b6115096125cd565b60005b60058054905081101561194157826005828154811061152e5761152d6131b8565b5b9060005260206000209060080201600001540361192e57600073ffffffffffffffffffffffffffffffffffffffff1660058281548110611571576115706131b8565b5b906000526020600020906008020160060160009054906101000a900473ffffffffffffffffffffffffffffffffffffffff1673ffffffffffffffffffffffffffffffffffffffff16146115f9576040517f08c379a00000000000000000000000000000000000000000000000000000000081526004016115f090613321565b60405180910390fd5b346005828154811061160e5761160d6131b8565b5b90600052602060002090600802016002015414611660576040517f08c379a00000000000000000000000000000000000000000000000000000000081526004016116579061338d565b60405180910390fd5b3360058281548110611675576116746131b8565b5b906000526020600020906008020160060160006101000a81548173ffffffffffffffffffffffffffffffffffffffff021916908373ffffffffffffffffffffffffffffffffffffffff160217905550600581815481106116d8576116d76131b8565b5b9060005260206000209060080201604051806101000160405290816000820154815260200160018201805461170c90613187565b80601f016020809104026020016040519081016040528092919081815260200182805461173890613187565b80156117855780601f1061175a57610100808354040283529160200191611785565b820191906000526020600020905b81548152906001019060200180831161176857829003601f168201915b5050505050815260200160028201548152602001600382015481526020016004820180546117b290613187565b80601f01602080910402602001604051908101604052809291908181526020018280546117de90613187565b801561182b5780601f106118005761010080835404028352916020019161182b565b820191906000526020600020905b81548152906001019060200180831161180e57829003601f168201915b5050505050815260200160058201805461184490613187565b80601f016020809104026020016040519081016040528092919081815260200182805461187090613187565b80156118bd5780601f10611892576101008083540402835291602001916118bd565b820191906000526020600020905b8154815290600101906020018083116118a057829003601f168201915b505050505081526020016006820160009054906101000a900473ffffffffffffffffffffffffffffffffffffffff1673ffffffffffffffffffffffffffffffffffffffff1673ffffffffffffffffffffffffffffffffffffffff168152602001600782015481525050915050611984565b808061193990613110565b91505061150c565b506000611983576040517f08c379a000000000000000000000000000000000000000000000000000000000815260040161197a906133f9565b60405180910390fd5b5b919050565b6060600080600090505b600680549050811015611a3a573373ffffffffffffffffffffffffffffffffffffffff16600682815481106119cb576119ca6131b8565b5b906000526020600020906002020160010160009054906101000a900473ffffffffffffffffffffffffffffffffffffffff1673ffffffffffffffffffffffffffffffffffffffff1603611a27578180611a2390613110565b9250505b8080611a3290613110565b915050611993565b5060008167ffffffffffffffff811115611a5757611a566126a4565b5b604051908082528060200260200182016040528015611a9057816020015b611a7d612628565b815260200190600190039081611a755790505b509050600080600090505b600680549050811015611c75573373ffffffffffffffffffffffffffffffffffffffff1660068281548110611ad357611ad26131b8565b5b906000526020600020906002020160010160009054906101000a900473ffffffffffffffffffffffffffffffffffffffff1673ffffffffffffffffffffffffffffffffffffffff1603611c625760068181548110611b3457611b336131b8565b5b9060005260206000209060020201604051806040016040529081600082018054611b5d90613187565b80601f0160208091040260200160405190810160405280929190818152602001828054611b8990613187565b8015611bd65780601f10611bab57610100808354040283529160200191611bd6565b820191906000526020600020905b815481529060010190602001808311611bb957829003601f168201915b505050505081526020016001820160009054906101000a900473ffffffffffffffffffffffffffffffffffffffff1673ffffffffffffffffffffffffffffffffffffffff1673ffffffffffffffffffffffffffffffffffffffff1681525050838381518110611c4857611c476131b8565b5b60200260200101819052508180611c5e90613110565b9250505b8080611c6d90613110565b915050611a9b565b5081935050505090565b600080600090505b600580549050811015611df4578360058281548110611ca957611ca86131b8565b5b90600052602060002090600802016000015403611de1573373ffffffffffffffffffffffffffffffffffffffff1660058281548110611ceb57611cea6131b8565b5b906000526020600020906008020160060160009054906101000a900473ffffffffffffffffffffffffffffffffffffffff1673ffffffffffffffffffffffffffffffffffffffff1614611d73576040517f08c379a0000000000000000000000000000000000000000000000000000000008152600401611d6a90613465565b60405180910390fd5b8260058281548110611d8857611d876131b8565b5b906000526020600020906008020160060160006101000a81548173ffffffffffffffffffffffffffffffffffffffff021916908373ffffffffffffffffffffffffffffffffffffffff1602179055506001915050611e37565b8080611dec90613110565b915050611c87565b506000611e36576040517f08c379a0000000000000000000000000000000000000000000000000000000008152600401611e2d906133f9565b60405180910390fd5b5b92915050565b6060600080600090505b600580549050811015611eee573373ffffffffffffffffffffffffffffffffffffffff1660058281548110611e7f57611e7e6131b8565b5b906000526020600020906008020160060160009054906101000a900473ffffffffffffffffffffffffffffffffffffffff1673ffffffffffffffffffffffffffffffffffffffff1603611edb578180611ed790613110565b9250505b8080611ee690613110565b915050611e47565b5060008167ffffffffffffffff811115611f0b57611f0a6126a4565b5b604051908082528060200260200182016040528015611f4457816020015b611f316125cd565b815260200190600190039081611f295790505b509050600080600090505b600580549050811015612276573373ffffffffffffffffffffffffffffffffffffffff1660058281548110611f8757611f866131b8565b5b906000526020600020906008020160060160009054906101000a900473ffffffffffffffffffffffffffffffffffffffff1673ffffffffffffffffffffffffffffffffffffffff16036122635760058181548110611fe857611fe76131b8565b5b9060005260206000209060080201604051806101000160405290816000820154815260200160018201805461201c90613187565b80601f016020809104026020016040519081016040528092919081815260200182805461204890613187565b80156120955780601f1061206a57610100808354040283529160200191612095565b820191906000526020600020905b81548152906001019060200180831161207857829003601f168201915b5050505050815260200160028201548152602001600382015481526020016004820180546120c290613187565b80601f01602080910402602001604051908101604052809291908181526020018280546120ee90613187565b801561213b5780601f106121105761010080835404028352916020019161213b565b820191906000526020600020905b81548152906001019060200180831161211e57829003601f168201915b5050505050815260200160058201805461215490613187565b80601f016020809104026020016040519081016040528092919081815260200182805461218090613187565b80156121cd5780601f106121a2576101008083540402835291602001916121cd565b820191906000526020600020905b8154815290600101906020018083116121b057829003601f168201915b505050505081526020016006820160009054906101000a900473ffffffffffffffffffffffffffffffffffffffff1673ffffffffffffffffffffffffffffffffffffffff1673ffffffffffffffffffffffffffffffffffffffff168152602001600782015481525050838381518110612249576122486131b8565b5b6020026020010181905250818061225f90613110565b9250505b808061226e90613110565b915050611f4f565b5081935050505090565b60008054906101000a900473ffffffffffffffffffffffffffffffffffffffff1681565b6122ac612628565b6000805b6005805490508110156123a2573373ffffffffffffffffffffffffffffffffffffffff16600582815481106122e8576122e76131b8565b5b906000526020600020906008020160060160009054906101000a900473ffffffffffffffffffffffffffffffffffffffff1673ffffffffffffffffffffffffffffffffffffffff161480156123615750816005828154811061234d5761234c6131b8565b5b906000526020600020906008020160030154115b1561238f576005818154811061237a576123796131b8565b5b90600052602060002090600802016003015491505b808061239a90613110565b9150506122b0565b5060006064826003546123b591906131e7565b6123bf9190613270565b905034816003546123d091906132a1565b14612410576040517f08c379a00000000000000000000000000000000000000000000000000000000081526004016124079061338d565b60405180910390fd5b60048460405161242091906134c1565b908152602001604051809103902060009054906101000a900460ff1661247b576040517f08c379a000000000000000000000000000000000000000000000000000000000815260040161247290613524565b60405180910390fd5b600060405180604001604052808681526020013373ffffffffffffffffffffffffffffffffffffffff168152509050600681908060018154018082558091505060019003906000526020600020906002020160009091909190915060008201518160000190805190602001906124f2929190612547565b5060208201518160010160006101000a81548173ffffffffffffffffffffffffffffffffffffffff021916908373ffffffffffffffffffffffffffffffffffffffff1602179055505050809350505050919050565b82805461255390613187565b90600052602060002090601f01602090048101928261257557600085556125bc565b82601f1061258e57805160ff19168380011785556125bc565b828001600101855582156125bc579182015b828111156125bb5782518255916020019190600101906125a0565b5b5090506125c99190612658565b5090565b604051806101000160405280600081526020016060815260200160008152602001600081526020016060815260200160608152602001600073ffffffffffffffffffffffffffffffffffffffff168152602001600081525090565b604051806040016040528060608152602001600073ffffffffffffffffffffffffffffffffffffffff1681525090565b5b80821115612671576000816000905550600101612659565b5090565b6000604051905090565b600080fd5b600080fd5b600080fd5b600080fd5b6000601f19601f8301169050919050565b7f4e487b7100000000000000000000000000000000000000000000000000000000600052604160045260246000fd5b6126dc82612693565b810181811067ffffffffffffffff821117156126fb576126fa6126a4565b5b80604052505050565b600061270e612675565b905061271a82826126d3565b919050565b600067ffffffffffffffff82111561273a576127396126a4565b5b61274382612693565b9050602081019050919050565b82818337600083830152505050565b600061277261276d8461271f565b612704565b90508281526020810184848401111561278e5761278d61268e565b5b612799848285612750565b509392505050565b600082601f8301126127b6576127b5612689565b5b81356127c684826020860161275f565b91505092915050565b6000819050919050565b6127e2816127cf565b81146127ed57600080fd5b50565b6000813590506127ff816127d9565b92915050565b60008060008060008060c087890312156128225761282161267f565b5b600087013567ffffffffffffffff8111156128405761283f612684565b5b61284c89828a016127a1565b965050602061285d89828a016127f0565b955050604061286e89828a016127f0565b945050606061287f89828a016127f0565b935050608087013567ffffffffffffffff8111156128a05761289f612684565b5b6128ac89828a016127a1565b92505060a087013567ffffffffffffffff8111156128cd576128cc612684565b5b6128d989828a016127a1565b9150509295509295509295565b600081519050919050565b600082825260208201905092915050565b6000819050602082019050919050565b61291b816127cf565b82525050565b600081519050919050565b600082825260208201905092915050565b60005b8381101561295b578082015181840152602081019050612940565b8381111561296a576000848401525b50505050565b600061297b82612921565b612985818561292c565b935061299581856020860161293d565b61299e81612693565b840191505092915050565b600073ffffffffffffffffffffffffffffffffffffffff82169050919050565b60006129d4826129a9565b9050919050565b6129e4816129c9565b82525050565b600061010083016000830151612a036000860182612912565b5060208301518482036020860152612a1b8282612970565b9150506040830151612a306040860182612912565b506060830151612a436060860182612912565b5060808301518482036080860152612a5b8282612970565b91505060a083015184820360a0860152612a758282612970565b91505060c0830151612a8a60c08601826129db565b5060e0830151612a9d60e0860182612912565b508091505092915050565b6000612ab483836129ea565b905092915050565b6000602082019050919050565b6000612ad4826128e6565b612ade81856128f1565b935083602082028501612af085612902565b8060005b85811015612b2c5784840389528151612b0d8582612aa8565b9450612b1883612abc565b925060208a01995050600181019050612af4565b50829750879550505050505092915050565b60006020820190508181036000830152612b588184612ac9565b905092915050565b600060208284031215612b7657612b7561267f565b5b6000612b84848285016127f0565b91505092915050565b600082825260208201905092915050565b6000612ba982612921565b612bb38185612b8d565b9350612bc381856020860161293d565b612bcc81612693565b840191505092915050565b612be0816129c9565b82525050565b60006040820190508181036000830152612c008185612b9e565b9050612c0f6020830184612bd7565b9392505050565b600060208284031215612c2c57612c2b61267f565b5b600082013567ffffffffffffffff811115612c4a57612c49612684565b5b612c56848285016127a1565b91505092915050565b60008115159050919050565b612c7481612c5f565b82525050565b6000602082019050612c8f6000830184612c6b565b92915050565b612c9e816127cf565b82525050565b6000602082019050612cb96000830184612c95565b92915050565b6000612cca826129a9565b9050919050565b612cda81612cbf565b82525050565b6000602082019050612cf56000830184612cd1565b92915050565b600061010082019050612d11600083018b612c95565b8181036020830152612d23818a612b9e565b9050612d326040830189612c95565b612d3f6060830188612c95565b8181036080830152612d518187612b9e565b905081810360a0830152612d658186612b9e565b9050612d7460c0830185612bd7565b612d8160e0830184612c95565b9998505050505050505050565b600061010083016000830151612da76000860182612912565b5060208301518482036020860152612dbf8282612970565b9150506040830151612dd46040860182612912565b506060830151612de76060860182612912565b5060808301518482036080860152612dff8282612970565b91505060a083015184820360a0860152612e198282612970565b91505060c0830151612e2e60c08601826129db565b5060e0830151612e4160e0860182612912565b508091505092915050565b60006020820190508181036000830152612e668184612d8e565b905092915050565b600081519050919050565b600082825260208201905092915050565b6000819050602082019050919050565b60006040830160008301518482036000860152612eb78282612970565b9150506020830151612ecc60208601826129db565b508091505092915050565b6000612ee38383612e9a565b905092915050565b6000602082019050919050565b6000612f0382612e6e565b612f0d8185612e79565b935083602082028501612f1f85612e8a565b8060005b85811015612f5b5784840389528151612f3c8582612ed7565b9450612f4783612eeb565b925060208a01995050600181019050612f23565b50829750879550505050505092915050565b60006020820190508181036000830152612f878184612ef8565b905092915050565b612f98816129c9565b8114612fa357600080fd5b50565b600081359050612fb581612f8f565b92915050565b60008060408385031215612fd257612fd161267f565b5b6000612fe0858286016127f0565b9250506020612ff185828601612fa6565b9150509250929050565b60006020820190506130106000830184612bd7565b92915050565b600060408301600083015184820360008601526130338282612970565b915050602083015161304860208601826129db565b508091505092915050565b6000602082019050818103600083015261306d8184613016565b905092915050565b7f596f75277265206e6f74207468652061646d696e000000000000000000000000600082015250565b60006130ab601483612b8d565b91506130b682613075565b602082019050919050565b600060208201905081810360008301526130da8161309e565b9050919050565b7f4e487b7100000000000000000000000000000000000000000000000000000000600052601160045260246000fd5b600061311b826127cf565b91507fffffffffffffffffffffffffffffffffffffffffffffffffffffffffffffffff820361314d5761314c6130e1565b5b600182019050919050565b7f4e487b7100000000000000000000000000000000000000000000000000000000600052602260045260246000fd5b6000600282049050600182168061319f57607f821691505b6020821081036131b2576131b1613158565b5b50919050565b7f4e487b7100000000000000000000000000000000000000000000000000000000600052603260045260246000fd5b60006131f2826127cf565b91506131fd836127cf565b9250817fffffffffffffffffffffffffffffffffffffffffffffffffffffffffffffffff0483118215151615613236576132356130e1565b5b828202905092915050565b7f4e487b7100000000000000000000000000000000000000000000000000000000600052601260045260246000fd5b600061327b826127cf565b9150613286836127cf565b92508261329657613295613241565b5b828204905092915050565b60006132ac826127cf565b91506132b7836127cf565b9250828210156132ca576132c96130e1565b5b828203905092915050565b7f43617264206e6f7420617661696c61626c650000000000000000000000000000600082015250565b600061330b601283612b8d565b9150613316826132d5565b602082019050919050565b6000602082019050818103600083015261333a816132fe565b9050919050565b7f50726f626c656d652064616e73206c6520706169656d656e7400000000000000600082015250565b6000613377601983612b8d565b915061338282613341565b602082019050919050565b600060208201905081810360008301526133a68161336a565b9050919050565b7f4361726420646f65736e74206578697374000000000000000000000000000000600082015250565b60006133e3601183612b8d565b91506133ee826133ad565b602082019050919050565b60006020820190508181036000830152613412816133d6565b9050919050565b7f43617264206e6f7420796f757273000000000000000000000000000000000000600082015250565b600061344f600e83612b8d565b915061345a82613419565b602082019050919050565b6000602082019050818103600083015261347e81613442565b9050919050565b600081905092915050565b600061349b82612921565b6134a58185613485565b93506134b581856020860161293d565b80840191505092915050565b60006134cd8284613490565b915081905092915050565b7f43652074797065206465207469636b6574206e27657869737465207061730000600082015250565b600061350e601e83612b8d565b9150613519826134d8565b602082019050919050565b6000602082019050818103600083015261353d81613501565b905091905056fea2646970667358221220f9e9dd387481f5d8cb3901a86565d2bd8d302bbda824742a9d64c627ffe014d264736f6c634300080d0033",
  "immutableReferences": {},
  "source": "// SPDX-License-Identifier: UNLICENSED\r\npragma solidity ^0.8.13;\r\n\r\ncontract RailRoad {\r\n    address public admin;\r\n    address payable public adminPayble;\r\n    uint public groupId;\r\n    uint ticketPrice;\r\n    mapping (string => bool) public TicketTypes;\r\n\r\n    Card[] public cards;\r\n    Ticket[] public tickets;\r\n\r\n    struct Card {\r\n        uint id;\r\n        string name;\r\n        uint price;\r\n        uint discount;\r\n        string image;\r\n        \r\n        string description;\r\n        address owner;\r\n        uint groupId;\r\n    }\r\n\r\n    struct Ticket {\r\n        string ticketType;\r\n        address owner;\r\n    }\r\n\r\n    modifier onlyAdmin() {\r\n        require(msg.sender == admin, \"You're not the admin\");\r\n        _;\r\n    }\r\n\r\n    constructor(address _admin, uint _ticketPrice) {\r\n        admin = _admin;\r\n        adminPayble = payable(_admin);\r\n        ticketPrice = _ticketPrice;\r\n\r\n        // Tickets types\r\n        TicketTypes[\"bus\"]=true;\r\n        TicketTypes[\"train\"]=true;\r\n        TicketTypes[\"subway\"]=true;\r\n    }\r\n\r\n    function isAdmin() public view returns (bool) {\r\n        return msg.sender == admin;\r\n    }\r\n\r\n    /**************\r\n         CARDS\r\n    **************/\r\n\r\n    function createCard(string memory name, uint price, uint count, uint discount, string memory image, string memory description) public onlyAdmin returns (Card[] memory) {\r\n        for (uint i = 0; i < count; i++) {\r\n            Card memory newCard = Card(cards.length, name, price, discount, image, description, address(0), groupId);\r\n            cards.push(newCard);\r\n        }\r\n        groupId++;\r\n\r\n        return cards;\r\n    }\r\n\r\n    function getMyCards() public view returns (Card[] memory) {\r\n        uint count;\r\n        for (uint i = 0; i < cards.length; i++) {\r\n            if (cards[i].owner == msg.sender) {\r\n                count++;\r\n            }\r\n        }\r\n\r\n        Card[] memory myCards = new Card[](count);\r\n        uint256 j;\r\n        for (uint i = 0; i < cards.length; i++) {\r\n            if (cards[i].owner == msg.sender) {\r\n                myCards[j] = cards[i];\r\n                j++;\r\n            }\r\n        }\r\n\r\n        return myCards;\r\n    }\r\n\r\n    function getAvailableCards() public view returns (Card[] memory) {\r\n        uint count;\r\n        for (uint i = 0; i < cards.length; i++) {\r\n            if (cards[i].owner == address(0)) {\r\n                count++;\r\n            }\r\n        }\r\n\r\n        Card[] memory availableCards = new Card[](count);\r\n        uint256 j;\r\n        for (uint i = 0; i < cards.length; i++) {\r\n            if (cards[i].owner == address(0)) {\r\n                availableCards[j] = cards[i];\r\n                j++;\r\n            }\r\n        }\r\n\r\n        return availableCards;\r\n    }\r\n\r\n    function retrieveAllCards() external view onlyAdmin returns (Card[] memory){\r\n        return cards;\r\n    }\r\n\r\n    function buyCard(uint id) external payable returns (Card memory card) {\r\n\r\n        for(uint i = 0; i < cards.length; i++) {\r\n            if (cards[i].id == id) {\r\n                require(cards[i].owner == address(0), \"Card not available\");\r\n                require(cards[i].price == msg.value, \"Probleme dans le paiement\");\r\n                cards[i].owner = msg.sender;\r\n                return cards[i];\r\n\r\n                //(bool sent, bytes memory data) = adminPayble.call{value: 1000000000000000000}(\"\");\r\n                //require(sent, \"Failed to send Ether\");\r\n            }\r\n        }\r\n        require(false, \"Card doesnt exist\");\r\n    }\r\n\r\n    function giveCard(uint id, address userToGive) external returns (bool success) {\r\n        for(uint i = 0; i < cards.length; i++) {\r\n            if (cards[i].id == id) {\r\n                require(cards[i].owner == msg.sender, \"Card not yours\");\r\n                cards[i].owner = userToGive;\r\n                return true;\r\n            }\r\n        }\r\n        require(false, \"Card doesnt exist\");\r\n    }\r\n\r\n    /**************\r\n        TICKETS\r\n    **************/\r\n\r\n    function ticketPriceAfterDiscount() external view returns (uint price) {\r\n        uint amountDiscount = 0;\r\n        for (uint i = 0; i < cards.length; i++) {\r\n            if (cards[i].owner == msg.sender && cards[i].discount > amountDiscount) {\r\n                amountDiscount = cards[i].discount;\r\n            }    \r\n        }\r\n        uint reduction = (ticketPrice * amountDiscount) / 100;\r\n        return ticketPrice - reduction;\r\n    }\r\n\r\n    function buyTicket(string memory typeTicket) external payable returns (Ticket memory ticket) {\r\n\r\n        // Get Discount\r\n        uint amountDiscount = 0;\r\n        for (uint i = 0; i < cards.length; i++) {\r\n            if (cards[i].owner == msg.sender && cards[i].discount > amountDiscount) {\r\n                amountDiscount = cards[i].discount;\r\n            }    \r\n        }\r\n        uint reduction = (ticketPrice * amountDiscount) / 100;\r\n\r\n        require((ticketPrice - reduction) == msg.value, \"Probleme dans le paiement\");\r\n        require(TicketTypes[typeTicket], \"Ce type de ticket n'existe pas\");\r\n        Ticket memory newTicket = Ticket(typeTicket, msg.sender);\r\n        tickets.push(newTicket);\r\n\r\n        return newTicket;\r\n    }\r\n\r\n    function getMyTickets() public view returns (Ticket[] memory) {\r\n        uint count;\r\n        for (uint i = 0; i < tickets.length; i++) {\r\n            if (tickets[i].owner == msg.sender) {\r\n                count++;\r\n            }\r\n        }\r\n\r\n        Ticket[] memory myTickets = new Ticket[](count);\r\n        uint256 j;\r\n        for (uint i = 0; i < tickets.length; i++) {\r\n            if (tickets[i].owner == msg.sender) {\r\n                myTickets[j] = tickets[i];\r\n                j++;\r\n            }\r\n        }\r\n        return myTickets;\r\n    }\r\n}",
  "sourcePath": "C:\\Users\\sebas\\Documents\\5BLOC\\railRoad-blockchain\\truffle\\contracts\\railRoad.sol",
  "compiler": {
    "name": "solc",
    "version": "0.8.13+commit.abaa5c0e.Emscripten.clang"
  },
  "schemaVersion": "3.4.11",
  "updatedAt": "2022-12-13T16:59:47.735Z",
  "networkType": "ethereum",
  "devdoc": {
    "kind": "dev",
    "methods": {},
    "version": 1
  },
  "userdoc": {
    "kind": "user",
    "methods": {},
    "version": 1
  }
}