{
  "contractName": "RailRoad",
  "abi": [
    {
      "inputs": [
        {
          "internalType": "address",
          "name": "_admin",
          "type": "address"
        },
        {
          "internalType": "uint256",
          "name": "_ticketPrice",
          "type": "uint256"
        }
      ],
      "stateMutability": "nonpayable",
      "type": "constructor"
    },
    {
      "inputs": [
        {
          "internalType": "string",
          "name": "",
          "type": "string"
        }
      ],
      "name": "TicketTypes",
      "outputs": [
        {
          "internalType": "bool",
          "name": "",
          "type": "bool"
        }
      ],
      "stateMutability": "view",
      "type": "function",
      "constant": true
    },
    {
      "inputs": [],
      "name": "admin",
      "outputs": [
        {
          "internalType": "address",
          "name": "",
          "type": "address"
        }
      ],
      "stateMutability": "view",
      "type": "function",
      "constant": true
    },
    {
      "inputs": [],
      "name": "adminPayble",
      "outputs": [
        {
          "internalType": "address payable",
          "name": "",
          "type": "address"
        }
      ],
      "stateMutability": "view",
      "type": "function",
      "constant": true
    },
    {
      "inputs": [
        {
          "internalType": "uint256",
          "name": "",
          "type": "uint256"
        }
      ],
      "name": "cards",
      "outputs": [
        {
          "internalType": "uint256",
          "name": "id",
          "type": "uint256"
        },
        {
          "internalType": "string",
          "name": "name",
          "type": "string"
        },
        {
          "internalType": "uint256",
          "name": "price",
          "type": "uint256"
        },
        {
          "internalType": "uint256",
          "name": "discount",
          "type": "uint256"
        },
        {
          "internalType": "string",
          "name": "image",
          "type": "string"
        },
        {
          "internalType": "string",
          "name": "description",
          "type": "string"
        },
        {
          "internalType": "address",
          "name": "owner",
          "type": "address"
        },
        {
          "internalType": "uint256",
          "name": "groupId",
          "type": "uint256"
        }
      ],
      "stateMutability": "view",
      "type": "function",
      "constant": true
    },
    {
      "inputs": [],
      "name": "groupId",
      "outputs": [
        {
          "internalType": "uint256",
          "name": "",
          "type": "uint256"
        }
      ],
      "stateMutability": "view",
      "type": "function",
      "constant": true
    },
    {
      "inputs": [
        {
          "internalType": "uint256",
          "name": "",
          "type": "uint256"
        }
      ],
      "name": "tickets",
      "outputs": [
        {
          "internalType": "string",
          "name": "ticketType",
          "type": "string"
        },
        {
          "internalType": "address",
          "name": "owner",
          "type": "address"
        }
      ],
      "stateMutability": "view",
      "type": "function",
      "constant": true
    },
    {
      "inputs": [],
      "name": "isAdmin",
      "outputs": [
        {
          "internalType": "bool",
          "name": "",
          "type": "bool"
        }
      ],
      "stateMutability": "view",
      "type": "function",
      "constant": true
    },
    {
      "inputs": [
        {
          "internalType": "string",
          "name": "name",
          "type": "string"
        },
        {
          "internalType": "uint256",
          "name": "price",
          "type": "uint256"
        },
        {
          "internalType": "uint256",
          "name": "count",
          "type": "uint256"
        },
        {
          "internalType": "uint256",
          "name": "discount",
          "type": "uint256"
        },
        {
          "internalType": "string",
          "name": "image",
          "type": "string"
        },
        {
          "internalType": "string",
          "name": "description",
          "type": "string"
        }
      ],
      "name": "createCard",
      "outputs": [
        {
          "components": [
            {
              "internalType": "uint256",
              "name": "id",
              "type": "uint256"
            },
            {
              "internalType": "string",
              "name": "name",
              "type": "string"
            },
            {
              "internalType": "uint256",
              "name": "price",
              "type": "uint256"
            },
            {
              "internalType": "uint256",
              "name": "discount",
              "type": "uint256"
            },
            {
              "internalType": "string",
              "name": "image",
              "type": "string"
            },
            {
              "internalType": "string",
              "name": "description",
              "type": "string"
            },
            {
              "internalType": "address",
              "name": "owner",
              "type": "address"
            },
            {
              "internalType": "uint256",
              "name": "groupId",
              "type": "uint256"
            }
          ],
          "internalType": "struct RailRoad.Card[]",
          "name": "",
          "type": "tuple[]"
        }
      ],
      "stateMutability": "nonpayable",
      "type": "function"
    },
    {
      "inputs": [],
      "name": "getMyCards",
      "outputs": [
        {
          "components": [
            {
              "internalType": "uint256",
              "name": "id",
              "type": "uint256"
            },
            {
              "internalType": "string",
              "name": "name",
              "type": "string"
            },
            {
              "internalType": "uint256",
              "name": "price",
              "type": "uint256"
            },
            {
              "internalType": "uint256",
              "name": "discount",
              "type": "uint256"
            },
            {
              "internalType": "string",
              "name": "image",
              "type": "string"
            },
            {
              "internalType": "string",
              "name": "description",
              "type": "string"
            },
            {
              "internalType": "address",
              "name": "owner",
              "type": "address"
            },
            {
              "internalType": "uint256",
              "name": "groupId",
              "type": "uint256"
            }
          ],
          "internalType": "struct RailRoad.Card[]",
          "name": "",
          "type": "tuple[]"
        }
      ],
      "stateMutability": "view",
      "type": "function",
      "constant": true
    },
    {
      "inputs": [],
      "name": "getAvailableCards",
      "outputs": [
        {
          "components": [
            {
              "internalType": "uint256",
              "name": "id",
              "type": "uint256"
            },
            {
              "internalType": "string",
              "name": "name",
              "type": "string"
            },
            {
              "internalType": "uint256",
              "name": "price",
              "type": "uint256"
            },
            {
              "internalType": "uint256",
              "name": "discount",
              "type": "uint256"
            },
            {
              "internalType": "string",
              "name": "image",
              "type": "string"
            },
            {
              "internalType": "string",
              "name": "description",
              "type": "string"
            },
            {
              "internalType": "address",
              "name": "owner",
              "type": "address"
            },
            {
              "internalType": "uint256",
              "name": "groupId",
              "type": "uint256"
            }
          ],
          "internalType": "struct RailRoad.Card[]",
          "name": "",
          "type": "tuple[]"
        }
      ],
      "stateMutability": "view",
      "type": "function",
      "constant": true
    },
    {
      "inputs": [],
      "name": "retrieveAllCards",
      "outputs": [
        {
          "components": [
            {
              "internalType": "uint256",
              "name": "id",
              "type": "uint256"
            },
            {
              "internalType": "string",
              "name": "name",
              "type": "string"
            },
            {
              "internalType": "uint256",
              "name": "price",
              "type": "uint256"
            },
            {
              "internalType": "uint256",
              "name": "discount",
              "type": "uint256"
            },
            {
              "internalType": "string",
              "name": "image",
              "type": "string"
            },
            {
              "internalType": "string",
              "name": "description",
              "type": "string"
            },
            {
              "internalType": "address",
              "name": "owner",
              "type": "address"
            },
            {
              "internalType": "uint256",
              "name": "groupId",
              "type": "uint256"
            }
          ],
          "internalType": "struct RailRoad.Card[]",
          "name": "",
          "type": "tuple[]"
        }
      ],
      "stateMutability": "view",
      "type": "function",
      "constant": true
    },
    {
      "inputs": [
        {
          "internalType": "uint256",
          "name": "id",
          "type": "uint256"
        }
      ],
      "name": "buyCard",
      "outputs": [
        {
          "components": [
            {
              "internalType": "uint256",
              "name": "id",
              "type": "uint256"
            },
            {
              "internalType": "string",
              "name": "name",
              "type": "string"
            },
            {
              "internalType": "uint256",
              "name": "price",
              "type": "uint256"
            },
            {
              "internalType": "uint256",
              "name": "discount",
              "type": "uint256"
            },
            {
              "internalType": "string",
              "name": "image",
              "type": "string"
            },
            {
              "internalType": "string",
              "name": "description",
              "type": "string"
            },
            {
              "internalType": "address",
              "name": "owner",
              "type": "address"
            },
            {
              "internalType": "uint256",
              "name": "groupId",
              "type": "uint256"
            }
          ],
          "internalType": "struct RailRoad.Card",
          "name": "card",
          "type": "tuple"
        }
      ],
      "stateMutability": "payable",
      "type": "function",
      "payable": true
    },
    {
      "inputs": [
        {
          "internalType": "uint256",
          "name": "id",
          "type": "uint256"
        },
        {
          "internalType": "address",
          "name": "userToGive",
          "type": "address"
        }
      ],
      "name": "giveCard",
      "outputs": [
        {
          "internalType": "bool",
          "name": "success",
          "type": "bool"
        }
      ],
      "stateMutability": "nonpayable",
      "type": "function"
    },
    {
      "inputs": [
        {
          "internalType": "string",
          "name": "typeTicket",
          "type": "string"
        }
      ],
      "name": "buyTicket",
      "outputs": [
        {
          "components": [
            {
              "internalType": "string",
              "name": "ticketType",
              "type": "string"
            },
            {
              "internalType": "address",
              "name": "owner",
              "type": "address"
            }
          ],
          "internalType": "struct RailRoad.Ticket",
          "name": "ticket",
          "type": "tuple"
        }
      ],
      "stateMutability": "payable",
      "type": "function",
      "payable": true
    },
    {
      "inputs": [],
      "name": "getMyTickets",
      "outputs": [
        {
          "components": [
            {
              "internalType": "string",
              "name": "ticketType",
              "type": "string"
            },
            {
              "internalType": "address",
              "name": "owner",
              "type": "address"
            }
          ],
          "internalType": "struct RailRoad.Ticket[]",
          "name": "",
          "type": "tuple[]"
        }
      ],
      "stateMutability": "view",
      "type": "function",
      "constant": true
    }
  ],
  "bytecode": "0x60806040523480156200001157600080fd5b50604051620035ac380380620035ac833981810160405281019062000037919062000211565b816000806101000a81548173ffffffffffffffffffffffffffffffffffffffff021916908373ffffffffffffffffffffffffffffffffffffffff16021790555081600160006101000a81548173ffffffffffffffffffffffffffffffffffffffff021916908373ffffffffffffffffffffffffffffffffffffffff1602179055508060038190555060016004604051620000d190620002b3565b908152602001604051809103902060006101000a81548160ff0219169083151502179055506001600460405162000108906200031a565b908152602001604051809103902060006101000a81548160ff021916908315150217905550600160046040516200013f9062000381565b908152602001604051809103902060006101000a81548160ff021916908315150217905550505062000398565b600080fd5b600073ffffffffffffffffffffffffffffffffffffffff82169050919050565b60006200019e8262000171565b9050919050565b620001b08162000191565b8114620001bc57600080fd5b50565b600081519050620001d081620001a5565b92915050565b6000819050919050565b620001eb81620001d6565b8114620001f757600080fd5b50565b6000815190506200020b81620001e0565b92915050565b600080604083850312156200022b576200022a6200016c565b5b60006200023b85828601620001bf565b92505060206200024e85828601620001fa565b9150509250929050565b600081905092915050565b7f6275730000000000000000000000000000000000000000000000000000000000600082015250565b60006200029b60038362000258565b9150620002a88262000263565b600382019050919050565b6000620002c0826200028c565b9150819050919050565b7f747261696e000000000000000000000000000000000000000000000000000000600082015250565b60006200030260058362000258565b91506200030f82620002ca565b600582019050919050565b60006200032782620002f3565b9150819050919050565b7f7375627761790000000000000000000000000000000000000000000000000000600082015250565b60006200036960068362000258565b9150620003768262000331565b600682019050919050565b60006200038e826200035a565b9150819050919050565b61320480620003a86000396000f3fe6080604052600436106100e85760003560e01c8063b6db75a01161008a578063eaefdbb911610059578063eaefdbb91461031b578063ed92c4bb14610358578063f851a44014610383578063fa30b251146103ae576100e8565b8063b6db75a01461026a578063bf87bf3c14610295578063c70f5eaa146102c0578063e1d10d85146102f0576100e8565b8063737acd0d116100c6578063737acd0d146101a557806379e4a5b7146101d05780638dc10768146101fb578063a0f44c921461023f576100e8565b80631626e7e5146100ed57806350b447121461012a5780635c74311114610168575b600080fd5b3480156100f957600080fd5b50610114600480360381019061010f919061257d565b6103de565b60405161012191906128b6565b60405180910390f35b34801561013657600080fd5b50610151600480360381019061014c91906128d8565b61088f565b60405161015f92919061295e565b60405180910390f35b34801561017457600080fd5b5061018f600480360381019061018a919061298e565b61096b565b60405161019c91906129f2565b60405180910390f35b3480156101b157600080fd5b506101ba6109a1565b6040516101c79190612a2e565b60405180910390f35b3480156101dc57600080fd5b506101e56109c7565b6040516101f291906128b6565b60405180910390f35b34801561020757600080fd5b50610222600480360381019061021d91906128d8565b610e0c565b604051610236989796959493929190612a58565b60405180910390f35b34801561024b57600080fd5b5061025461101c565b6040516102619190612aeb565b60405180910390f35b34801561027657600080fd5b5061027f611022565b60405161028c91906129f2565b60405180910390f35b3480156102a157600080fd5b506102aa611079565b6040516102b791906128b6565b60405180910390f35b6102da60048036038101906102d591906128d8565b61139b565b6040516102e79190612bc4565b60405180910390f35b3480156102fc57600080fd5b50610305611823565b6040516103129190612ce5565b60405180910390f35b34801561032757600080fd5b50610342600480360381019061033d9190612d33565b611b19565b60405161034f91906129f2565b60405180910390f35b34801561036457600080fd5b5061036d611cd7565b60405161037a91906128b6565b60405180910390f35b34801561038f57600080fd5b5061039861211a565b6040516103a59190612d73565b60405180910390f35b6103c860048036038101906103c3919061298e565b61213e565b6040516103d59190612dcb565b60405180910390f35b606060008054906101000a900473ffffffffffffffffffffffffffffffffffffffff1673ffffffffffffffffffffffffffffffffffffffff163373ffffffffffffffffffffffffffffffffffffffff161461046e576040517f08c379a000000000000000000000000000000000000000000000000000000000815260040161046590612e39565b60405180910390fd5b60005b858110156105dd57600060405180610100016040528060058054905081526020018a8152602001898152602001878152602001868152602001858152602001600073ffffffffffffffffffffffffffffffffffffffff168152602001600254815250905060058190806001815401808255809150506001900390600052602060002090600802016000909190919091506000820151816000015560208201518160010190805190602001906105279291906122bf565b50604082015181600201556060820151816003015560808201518160040190805190602001906105589291906122bf565b5060a08201518160050190805190602001906105759291906122bf565b5060c08201518160060160006101000a81548173ffffffffffffffffffffffffffffffffffffffff021916908373ffffffffffffffffffffffffffffffffffffffff16021790555060e0820151816007015550505080806105d590612e88565b915050610471565b50600260008154809291906105f190612e88565b91905055506005805480602002602001604051908101604052809291908181526020016000905b8282101561087f5783829060005260206000209060080201604051806101000160405290816000820154815260200160018201805461065690612eff565b80601f016020809104026020016040519081016040528092919081815260200182805461068290612eff565b80156106cf5780601f106106a4576101008083540402835291602001916106cf565b820191906000526020600020905b8154815290600101906020018083116106b257829003601f168201915b5050505050815260200160028201548152602001600382015481526020016004820180546106fc90612eff565b80601f016020809104026020016040519081016040528092919081815260200182805461072890612eff565b80156107755780601f1061074a57610100808354040283529160200191610775565b820191906000526020600020905b81548152906001019060200180831161075857829003601f168201915b5050505050815260200160058201805461078e90612eff565b80601f01602080910402602001604051908101604052809291908181526020018280546107ba90612eff565b80156108075780601f106107dc57610100808354040283529160200191610807565b820191906000526020600020905b8154815290600101906020018083116107ea57829003601f168201915b505050505081526020016006820160009054906101000a900473ffffffffffffffffffffffffffffffffffffffff1673ffffffffffffffffffffffffffffffffffffffff1673ffffffffffffffffffffffffffffffffffffffff16815260200160078201548152505081526020019060010190610618565b5050505090509695505050505050565b6006818154811061089f57600080fd5b90600052602060002090600202016000915090508060000180546108c290612eff565b80601f01602080910402602001604051908101604052809291908181526020018280546108ee90612eff565b801561093b5780601f106109105761010080835404028352916020019161093b565b820191906000526020600020905b81548152906001019060200180831161091e57829003601f168201915b5050505050908060010160009054906101000a900473ffffffffffffffffffffffffffffffffffffffff16905082565b6004818051602081018201805184825260208301602085012081835280955050505050506000915054906101000a900460ff1681565b600160009054906101000a900473ffffffffffffffffffffffffffffffffffffffff1681565b6060600080600090505b600580549050811015610a7957600073ffffffffffffffffffffffffffffffffffffffff1660058281548110610a0a57610a09612f30565b5b906000526020600020906008020160060160009054906101000a900473ffffffffffffffffffffffffffffffffffffffff1673ffffffffffffffffffffffffffffffffffffffff1603610a66578180610a6290612e88565b9250505b8080610a7190612e88565b9150506109d1565b5060008167ffffffffffffffff811115610a9657610a9561241c565b5b604051908082528060200260200182016040528015610acf57816020015b610abc612345565b815260200190600190039081610ab45790505b509050600080600090505b600580549050811015610e0257600073ffffffffffffffffffffffffffffffffffffffff1660058281548110610b1357610b12612f30565b5b906000526020600020906008020160060160009054906101000a900473ffffffffffffffffffffffffffffffffffffffff1673ffffffffffffffffffffffffffffffffffffffff1603610def5760058181548110610b7457610b73612f30565b5b90600052602060002090600802016040518061010001604052908160008201548152602001600182018054610ba890612eff565b80601f0160208091040260200160405190810160405280929190818152602001828054610bd490612eff565b8015610c215780601f10610bf657610100808354040283529160200191610c21565b820191906000526020600020905b815481529060010190602001808311610c0457829003601f168201915b505050505081526020016002820154815260200160038201548152602001600482018054610c4e90612eff565b80601f0160208091040260200160405190810160405280929190818152602001828054610c7a90612eff565b8015610cc75780601f10610c9c57610100808354040283529160200191610cc7565b820191906000526020600020905b815481529060010190602001808311610caa57829003601f168201915b50505050508152602001600582018054610ce090612eff565b80601f0160208091040260200160405190810160405280929190818152602001828054610d0c90612eff565b8015610d595780601f10610d2e57610100808354040283529160200191610d59565b820191906000526020600020905b815481529060010190602001808311610d3c57829003601f168201915b505050505081526020016006820160009054906101000a900473ffffffffffffffffffffffffffffffffffffffff1673ffffffffffffffffffffffffffffffffffffffff1673ffffffffffffffffffffffffffffffffffffffff168152602001600782015481525050838381518110610dd557610dd4612f30565b5b60200260200101819052508180610deb90612e88565b9250505b8080610dfa90612e88565b915050610ada565b5081935050505090565b60058181548110610e1c57600080fd5b9060005260206000209060080201600091509050806000015490806001018054610e4590612eff565b80601f0160208091040260200160405190810160405280929190818152602001828054610e7190612eff565b8015610ebe5780601f10610e9357610100808354040283529160200191610ebe565b820191906000526020600020905b815481529060010190602001808311610ea157829003601f168201915b505050505090806002015490806003015490806004018054610edf90612eff565b80601f0160208091040260200160405190810160405280929190818152602001828054610f0b90612eff565b8015610f585780601f10610f2d57610100808354040283529160200191610f58565b820191906000526020600020905b815481529060010190602001808311610f3b57829003601f168201915b505050505090806005018054610f6d90612eff565b80601f0160208091040260200160405190810160405280929190818152602001828054610f9990612eff565b8015610fe65780601f10610fbb57610100808354040283529160200191610fe6565b820191906000526020600020905b815481529060010190602001808311610fc957829003601f168201915b5050505050908060060160009054906101000a900473ffffffffffffffffffffffffffffffffffffffff16908060070154905088565b60025481565b60008060009054906101000a900473ffffffffffffffffffffffffffffffffffffffff1673ffffffffffffffffffffffffffffffffffffffff163373ffffffffffffffffffffffffffffffffffffffff1614905090565b606060008054906101000a900473ffffffffffffffffffffffffffffffffffffffff1673ffffffffffffffffffffffffffffffffffffffff163373ffffffffffffffffffffffffffffffffffffffff1614611109576040517f08c379a000000000000000000000000000000000000000000000000000000000815260040161110090612e39565b60405180910390fd5b6005805480602002602001604051908101604052809291908181526020016000905b828210156113925783829060005260206000209060080201604051806101000160405290816000820154815260200160018201805461116990612eff565b80601f016020809104026020016040519081016040528092919081815260200182805461119590612eff565b80156111e25780601f106111b7576101008083540402835291602001916111e2565b820191906000526020600020905b8154815290600101906020018083116111c557829003601f168201915b50505050508152602001600282015481526020016003820154815260200160048201805461120f90612eff565b80601f016020809104026020016040519081016040528092919081815260200182805461123b90612eff565b80156112885780601f1061125d57610100808354040283529160200191611288565b820191906000526020600020905b81548152906001019060200180831161126b57829003601f168201915b505050505081526020016005820180546112a190612eff565b80601f01602080910402602001604051908101604052809291908181526020018280546112cd90612eff565b801561131a5780601f106112ef5761010080835404028352916020019161131a565b820191906000526020600020905b8154815290600101906020018083116112fd57829003601f168201915b505050505081526020016006820160009054906101000a900473ffffffffffffffffffffffffffffffffffffffff1673ffffffffffffffffffffffffffffffffffffffff1673ffffffffffffffffffffffffffffffffffffffff1681526020016007820154815250508152602001906001019061112b565b50505050905090565b6113a3612345565b60005b6005805490508110156117db5782600582815481106113c8576113c7612f30565b5b906000526020600020906008020160000154036117c857600073ffffffffffffffffffffffffffffffffffffffff166005828154811061140b5761140a612f30565b5b906000526020600020906008020160060160009054906101000a900473ffffffffffffffffffffffffffffffffffffffff1673ffffffffffffffffffffffffffffffffffffffff1614611493576040517f08c379a000000000000000000000000000000000000000000000000000000000815260040161148a90612fab565b60405180910390fd5b34600582815481106114a8576114a7612f30565b5b906000526020600020906008020160020154146114fa576040517f08c379a00000000000000000000000000000000000000000000000000000000081526004016114f190613017565b60405180910390fd5b336005828154811061150f5761150e612f30565b5b906000526020600020906008020160060160006101000a81548173ffffffffffffffffffffffffffffffffffffffff021916908373ffffffffffffffffffffffffffffffffffffffff1602179055506005818154811061157257611571612f30565b5b906000526020600020906008020160405180610100016040529081600082015481526020016001820180546115a690612eff565b80601f01602080910402602001604051908101604052809291908181526020018280546115d290612eff565b801561161f5780601f106115f45761010080835404028352916020019161161f565b820191906000526020600020905b81548152906001019060200180831161160257829003601f168201915b50505050508152602001600282015481526020016003820154815260200160048201805461164c90612eff565b80601f016020809104026020016040519081016040528092919081815260200182805461167890612eff565b80156116c55780601f1061169a576101008083540402835291602001916116c5565b820191906000526020600020905b8154815290600101906020018083116116a857829003601f168201915b505050505081526020016005820180546116de90612eff565b80601f016020809104026020016040519081016040528092919081815260200182805461170a90612eff565b80156117575780601f1061172c57610100808354040283529160200191611757565b820191906000526020600020905b81548152906001019060200180831161173a57829003601f168201915b505050505081526020016006820160009054906101000a900473ffffffffffffffffffffffffffffffffffffffff1673ffffffffffffffffffffffffffffffffffffffff1673ffffffffffffffffffffffffffffffffffffffff16815260200160078201548152505091505061181e565b80806117d390612e88565b9150506113a6565b50600061181d576040517f08c379a000000000000000000000000000000000000000000000000000000000815260040161181490613083565b60405180910390fd5b5b919050565b6060600080600090505b6006805490508110156118d4573373ffffffffffffffffffffffffffffffffffffffff166006828154811061186557611864612f30565b5b906000526020600020906002020160010160009054906101000a900473ffffffffffffffffffffffffffffffffffffffff1673ffffffffffffffffffffffffffffffffffffffff16036118c15781806118bd90612e88565b9250505b80806118cc90612e88565b91505061182d565b5060008167ffffffffffffffff8111156118f1576118f061241c565b5b60405190808252806020026020018201604052801561192a57816020015b6119176123a0565b81526020019060019003908161190f5790505b509050600080600090505b600680549050811015611b0f573373ffffffffffffffffffffffffffffffffffffffff166006828154811061196d5761196c612f30565b5b906000526020600020906002020160010160009054906101000a900473ffffffffffffffffffffffffffffffffffffffff1673ffffffffffffffffffffffffffffffffffffffff1603611afc57600681815481106119ce576119cd612f30565b5b90600052602060002090600202016040518060400160405290816000820180546119f790612eff565b80601f0160208091040260200160405190810160405280929190818152602001828054611a2390612eff565b8015611a705780601f10611a4557610100808354040283529160200191611a70565b820191906000526020600020905b815481529060010190602001808311611a5357829003601f168201915b505050505081526020016001820160009054906101000a900473ffffffffffffffffffffffffffffffffffffffff1673ffffffffffffffffffffffffffffffffffffffff1673ffffffffffffffffffffffffffffffffffffffff1681525050838381518110611ae257611ae1612f30565b5b60200260200101819052508180611af890612e88565b9250505b8080611b0790612e88565b915050611935565b5081935050505090565b600080600090505b600580549050811015611c8e578360058281548110611b4357611b42612f30565b5b90600052602060002090600802016000015403611c7b573373ffffffffffffffffffffffffffffffffffffffff1660058281548110611b8557611b84612f30565b5b906000526020600020906008020160060160009054906101000a900473ffffffffffffffffffffffffffffffffffffffff1673ffffffffffffffffffffffffffffffffffffffff1614611c0d576040517f08c379a0000000000000000000000000000000000000000000000000000000008152600401611c04906130ef565b60405180910390fd5b8260058281548110611c2257611c21612f30565b5b906000526020600020906008020160060160006101000a81548173ffffffffffffffffffffffffffffffffffffffff021916908373ffffffffffffffffffffffffffffffffffffffff1602179055506001915050611cd1565b8080611c8690612e88565b915050611b21565b506000611cd0576040517f08c379a0000000000000000000000000000000000000000000000000000000008152600401611cc790613083565b60405180910390fd5b5b92915050565b6060600080600090505b600580549050811015611d88573373ffffffffffffffffffffffffffffffffffffffff1660058281548110611d1957611d18612f30565b5b906000526020600020906008020160060160009054906101000a900473ffffffffffffffffffffffffffffffffffffffff1673ffffffffffffffffffffffffffffffffffffffff1603611d75578180611d7190612e88565b9250505b8080611d8090612e88565b915050611ce1565b5060008167ffffffffffffffff811115611da557611da461241c565b5b604051908082528060200260200182016040528015611dde57816020015b611dcb612345565b815260200190600190039081611dc35790505b509050600080600090505b600580549050811015612110573373ffffffffffffffffffffffffffffffffffffffff1660058281548110611e2157611e20612f30565b5b906000526020600020906008020160060160009054906101000a900473ffffffffffffffffffffffffffffffffffffffff1673ffffffffffffffffffffffffffffffffffffffff16036120fd5760058181548110611e8257611e81612f30565b5b90600052602060002090600802016040518061010001604052908160008201548152602001600182018054611eb690612eff565b80601f0160208091040260200160405190810160405280929190818152602001828054611ee290612eff565b8015611f2f5780601f10611f0457610100808354040283529160200191611f2f565b820191906000526020600020905b815481529060010190602001808311611f1257829003601f168201915b505050505081526020016002820154815260200160038201548152602001600482018054611f5c90612eff565b80601f0160208091040260200160405190810160405280929190818152602001828054611f8890612eff565b8015611fd55780601f10611faa57610100808354040283529160200191611fd5565b820191906000526020600020905b815481529060010190602001808311611fb857829003601f168201915b50505050508152602001600582018054611fee90612eff565b80601f016020809104026020016040519081016040528092919081815260200182805461201a90612eff565b80156120675780601f1061203c57610100808354040283529160200191612067565b820191906000526020600020905b81548152906001019060200180831161204a57829003601f168201915b505050505081526020016006820160009054906101000a900473ffffffffffffffffffffffffffffffffffffffff1673ffffffffffffffffffffffffffffffffffffffff1673ffffffffffffffffffffffffffffffffffffffff1681526020016007820154815250508383815181106120e3576120e2612f30565b5b602002602001018190525081806120f990612e88565b9250505b808061210890612e88565b915050611de9565b5081935050505090565b60008054906101000a900473ffffffffffffffffffffffffffffffffffffffff1681565b6121466123a0565b346003541461218a576040517f08c379a000000000000000000000000000000000000000000000000000000000815260040161218190613017565b60405180910390fd5b60048260405161219a919061314b565b908152602001604051809103902060009054906101000a900460ff166121f5576040517f08c379a00000000000000000000000000000000000000000000000000000000081526004016121ec906131ae565b60405180910390fd5b600060405180604001604052808481526020013373ffffffffffffffffffffffffffffffffffffffff1681525090506006819080600181540180825580915050600190039060005260206000209060020201600090919091909150600082015181600001908051906020019061226c9291906122bf565b5060208201518160010160006101000a81548173ffffffffffffffffffffffffffffffffffffffff021916908373ffffffffffffffffffffffffffffffffffffffff160217905550505080915050919050565b8280546122cb90612eff565b90600052602060002090601f0160209004810192826122ed5760008555612334565b82601f1061230657805160ff1916838001178555612334565b82800160010185558215612334579182015b82811115612333578251825591602001919060010190612318565b5b50905061234191906123d0565b5090565b604051806101000160405280600081526020016060815260200160008152602001600081526020016060815260200160608152602001600073ffffffffffffffffffffffffffffffffffffffff168152602001600081525090565b604051806040016040528060608152602001600073ffffffffffffffffffffffffffffffffffffffff1681525090565b5b808211156123e95760008160009055506001016123d1565b5090565b6000604051905090565b600080fd5b600080fd5b600080fd5b600080fd5b6000601f19601f8301169050919050565b7f4e487b7100000000000000000000000000000000000000000000000000000000600052604160045260246000fd5b6124548261240b565b810181811067ffffffffffffffff821117156124735761247261241c565b5b80604052505050565b60006124866123ed565b9050612492828261244b565b919050565b600067ffffffffffffffff8211156124b2576124b161241c565b5b6124bb8261240b565b9050602081019050919050565b82818337600083830152505050565b60006124ea6124e584612497565b61247c565b90508281526020810184848401111561250657612505612406565b5b6125118482856124c8565b509392505050565b600082601f83011261252e5761252d612401565b5b813561253e8482602086016124d7565b91505092915050565b6000819050919050565b61255a81612547565b811461256557600080fd5b50565b60008135905061257781612551565b92915050565b60008060008060008060c0878903121561259a576125996123f7565b5b600087013567ffffffffffffffff8111156125b8576125b76123fc565b5b6125c489828a01612519565b96505060206125d589828a01612568565b95505060406125e689828a01612568565b94505060606125f789828a01612568565b935050608087013567ffffffffffffffff811115612618576126176123fc565b5b61262489828a01612519565b92505060a087013567ffffffffffffffff811115612645576126446123fc565b5b61265189828a01612519565b9150509295509295509295565b600081519050919050565b600082825260208201905092915050565b6000819050602082019050919050565b61269381612547565b82525050565b600081519050919050565b600082825260208201905092915050565b60005b838110156126d35780820151818401526020810190506126b8565b838111156126e2576000848401525b50505050565b60006126f382612699565b6126fd81856126a4565b935061270d8185602086016126b5565b6127168161240b565b840191505092915050565b600073ffffffffffffffffffffffffffffffffffffffff82169050919050565b600061274c82612721565b9050919050565b61275c81612741565b82525050565b60006101008301600083015161277b600086018261268a565b506020830151848203602086015261279382826126e8565b91505060408301516127a8604086018261268a565b5060608301516127bb606086018261268a565b50608083015184820360808601526127d382826126e8565b91505060a083015184820360a08601526127ed82826126e8565b91505060c083015161280260c0860182612753565b5060e083015161281560e086018261268a565b508091505092915050565b600061282c8383612762565b905092915050565b6000602082019050919050565b600061284c8261265e565b6128568185612669565b9350836020820285016128688561267a565b8060005b858110156128a457848403895281516128858582612820565b945061289083612834565b925060208a0199505060018101905061286c565b50829750879550505050505092915050565b600060208201905081810360008301526128d08184612841565b905092915050565b6000602082840312156128ee576128ed6123f7565b5b60006128fc84828501612568565b91505092915050565b600082825260208201905092915050565b600061292182612699565b61292b8185612905565b935061293b8185602086016126b5565b6129448161240b565b840191505092915050565b61295881612741565b82525050565b600060408201905081810360008301526129788185612916565b9050612987602083018461294f565b9392505050565b6000602082840312156129a4576129a36123f7565b5b600082013567ffffffffffffffff8111156129c2576129c16123fc565b5b6129ce84828501612519565b91505092915050565b60008115159050919050565b6129ec816129d7565b82525050565b6000602082019050612a0760008301846129e3565b92915050565b6000612a1882612721565b9050919050565b612a2881612a0d565b82525050565b6000602082019050612a436000830184612a1f565b92915050565b612a5281612547565b82525050565b600061010082019050612a6e600083018b612a49565b8181036020830152612a80818a612916565b9050612a8f6040830189612a49565b612a9c6060830188612a49565b8181036080830152612aae8187612916565b905081810360a0830152612ac28186612916565b9050612ad160c083018561294f565b612ade60e0830184612a49565b9998505050505050505050565b6000602082019050612b006000830184612a49565b92915050565b600061010083016000830151612b1f600086018261268a565b5060208301518482036020860152612b3782826126e8565b9150506040830151612b4c604086018261268a565b506060830151612b5f606086018261268a565b5060808301518482036080860152612b7782826126e8565b91505060a083015184820360a0860152612b9182826126e8565b91505060c0830151612ba660c0860182612753565b5060e0830151612bb960e086018261268a565b508091505092915050565b60006020820190508181036000830152612bde8184612b06565b905092915050565b600081519050919050565b600082825260208201905092915050565b6000819050602082019050919050565b60006040830160008301518482036000860152612c2f82826126e8565b9150506020830151612c446020860182612753565b508091505092915050565b6000612c5b8383612c12565b905092915050565b6000602082019050919050565b6000612c7b82612be6565b612c858185612bf1565b935083602082028501612c9785612c02565b8060005b85811015612cd35784840389528151612cb48582612c4f565b9450612cbf83612c63565b925060208a01995050600181019050612c9b565b50829750879550505050505092915050565b60006020820190508181036000830152612cff8184612c70565b905092915050565b612d1081612741565b8114612d1b57600080fd5b50565b600081359050612d2d81612d07565b92915050565b60008060408385031215612d4a57612d496123f7565b5b6000612d5885828601612568565b9250506020612d6985828601612d1e565b9150509250929050565b6000602082019050612d88600083018461294f565b92915050565b60006040830160008301518482036000860152612dab82826126e8565b9150506020830151612dc06020860182612753565b508091505092915050565b60006020820190508181036000830152612de58184612d8e565b905092915050565b7f596f75277265206e6f74207468652061646d696e000000000000000000000000600082015250565b6000612e23601483612905565b9150612e2e82612ded565b602082019050919050565b60006020820190508181036000830152612e5281612e16565b9050919050565b7f4e487b7100000000000000000000000000000000000000000000000000000000600052601160045260246000fd5b6000612e9382612547565b91507fffffffffffffffffffffffffffffffffffffffffffffffffffffffffffffffff8203612ec557612ec4612e59565b5b600182019050919050565b7f4e487b7100000000000000000000000000000000000000000000000000000000600052602260045260246000fd5b60006002820490506001821680612f1757607f821691505b602082108103612f2a57612f29612ed0565b5b50919050565b7f4e487b7100000000000000000000000000000000000000000000000000000000600052603260045260246000fd5b7f43617264206e6f7420617661696c61626c650000000000000000000000000000600082015250565b6000612f95601283612905565b9150612fa082612f5f565b602082019050919050565b60006020820190508181036000830152612fc481612f88565b9050919050565b7f50726f626c656d652064616e73206c6520706169656d656e7400000000000000600082015250565b6000613001601983612905565b915061300c82612fcb565b602082019050919050565b6000602082019050818103600083015261303081612ff4565b9050919050565b7f4361726420646f65736e74206578697374000000000000000000000000000000600082015250565b600061306d601183612905565b915061307882613037565b602082019050919050565b6000602082019050818103600083015261309c81613060565b9050919050565b7f43617264206e6f7420796f757273000000000000000000000000000000000000600082015250565b60006130d9600e83612905565b91506130e4826130a3565b602082019050919050565b60006020820190508181036000830152613108816130cc565b9050919050565b600081905092915050565b600061312582612699565b61312f818561310f565b935061313f8185602086016126b5565b80840191505092915050565b6000613157828461311a565b915081905092915050565b7f43652074797065206465207469636b6574206e27657869737465207061730000600082015250565b6000613198601e83612905565b91506131a382613162565b602082019050919050565b600060208201905081810360008301526131c78161318b565b905091905056fea264697066735822122073d674ac8beadf373ed30d8854e28de8fc633ac80d9c183fc85eed187121339964736f6c634300080d0033",
  "immutableReferences": {},
  "source": "// SPDX-License-Identifier: UNLICENSED\r\npragma solidity ^0.8.13;\r\n\r\ncontract RailRoad {\r\n    address public admin;\r\n    address payable public adminPayble;\r\n    uint public groupId;\r\n    uint ticketPrice;\r\n    mapping (string => bool) public TicketTypes;\r\n\r\n    Card[] public cards;\r\n    Ticket[] public tickets;\r\n\r\n    struct Card {\r\n        uint id;\r\n        string name;\r\n        uint price;\r\n        uint discount;\r\n        string image;\r\n        string description;\r\n        address owner;\r\n        uint groupId;\r\n    }\r\n\r\n    struct Ticket {\r\n        string ticketType;\r\n        address owner;\r\n    }\r\n\r\n    modifier onlyAdmin() {\r\n        require(msg.sender == admin, \"You're not the admin\");\r\n        _;\r\n    }\r\n\r\n    constructor(address _admin, uint _ticketPrice) {\r\n        admin = _admin;\r\n        adminPayble = payable(_admin);\r\n        ticketPrice = _ticketPrice;\r\n\r\n        // Tickets types\r\n        TicketTypes[\"bus\"]=true;\r\n        TicketTypes[\"train\"]=true;\r\n        TicketTypes[\"subway\"]=true;\r\n    }\r\n\r\n    function isAdmin() public view returns (bool) {\r\n        return msg.sender == admin;\r\n    }\r\n\r\n    /**************\r\n         CARDS\r\n    **************/\r\n\r\n    function createCard(string memory name, uint price, uint count, uint discount, string memory image, string memory description) external onlyAdmin {\r\n        for (uint i = 0; i < count; i++) {\r\n            Card memory newCard = Card(cards.length, name, price, discount, image, description, address(0), groupId);\r\n            cards.push(newCard);\r\n        }\r\n        groupId++;\r\n    }\r\n\r\n    function getMyCards() public view returns (Card[] memory) {\r\n        uint count;\r\n        for (uint i = 0; i < cards.length; i++) {\r\n            if (cards[i].owner == msg.sender) {\r\n                count++;\r\n            }\r\n        }\r\n\r\n        Card[] memory myCards = new Card[](count);\r\n        uint256 j;\r\n        for (uint i = 0; i < cards.length; i++) {\r\n            if (cards[i].owner == msg.sender) {\r\n                myCards[j] = cards[i];\r\n                j++;\r\n            }\r\n        }\r\n\r\n        return myCards;\r\n    }\r\n\r\n    function getAvailableCards() public view returns (Card[] memory) {\r\n        uint count;\r\n        for (uint i = 0; i < cards.length; i++) {\r\n            if (cards[i].owner == address(0)) {\r\n                count++;\r\n            }\r\n        }\r\n\r\n        Card[] memory availableCards = new Card[](count);\r\n        uint256 j;\r\n        for (uint i = 0; i < cards.length; i++) {\r\n            if (cards[i].owner == address(0)) {\r\n                availableCards[j] = cards[i];\r\n                j++;\r\n            }\r\n        }\r\n\r\n        return availableCards;\r\n    }\r\n\r\n    function retrieveAllCards() external view onlyAdmin returns (Card[] memory){\r\n        return cards;\r\n    }\r\n\r\n    function buyCard(uint id) external payable returns (Card memory card) {\r\n        for(uint i = 0; i < cards.length; i++) {\r\n            if (cards[i].id == id) {\r\n                require(cards[i].owner == address(0), \"Card not available\");\r\n                require(cards[i].price == msg.value, \"Probleme dans le paiement\");\r\n                cards[i].owner = msg.sender;\r\n                return cards[i];\r\n\r\n                //(bool sent, bytes memory data) = adminPayble.call{value: 1000000000000000000}(\"\");\r\n                //require(sent, \"Failed to send Ether\");\r\n            }\r\n        }\r\n        require(false, \"Card doesnt exist\");\r\n    }\r\n\r\n    function giveCard(uint id, address userToGive) external returns (bool success) {\r\n        for(uint i = 0; i < cards.length; i++) {\r\n            if (cards[i].id == id) {\r\n                require(cards[i].owner == msg.sender, \"Card not yours\");\r\n                cards[i].owner = userToGive;\r\n                return true;\r\n            }\r\n        }\r\n        require(false, \"Card doesnt exist\");\r\n    }\r\n\r\n    /**************\r\n        TICKETS\r\n    **************/\r\n\r\n    function buyTicket(string memory typeTicket) external payable returns (Ticket memory ticket) {\r\n        require(ticketPrice == msg.value, \"Probleme dans le paiement\");\r\n        require(TicketTypes[typeTicket], \"Ce type de ticket n'existe pas\");\r\n        Ticket memory newTicket = Ticket(typeTicket, msg.sender);\r\n        tickets.push(newTicket);\r\n\r\n        return newTicket;\r\n    }\r\n\r\n    function getMyTickets() public view returns (Ticket[] memory) {\r\n        uint count;\r\n        for (uint i = 0; i < tickets.length; i++) {\r\n            if (tickets[i].owner == msg.sender) {\r\n                count++;\r\n            }\r\n        }\r\n\r\n        Ticket[] memory myTickets = new Ticket[](count);\r\n        uint256 j;\r\n        for (uint i = 0; i < tickets.length; i++) {\r\n            if (tickets[i].owner == msg.sender) {\r\n                myTickets[j] = tickets[i];\r\n                j++;\r\n            }\r\n        }\r\n        return myTickets;\r\n    }\r\n}",
  "sourcePath": "/Users/clement/Desktop/supinfo/M.ENG2/5BLOC/truffle/contracts/railRoad.sol",
  "compiler": {
    "name": "solc",
    "version": "0.8.13+commit.abaa5c0e.Emscripten.clang"
  },
  "schemaVersion": "3.4.11",
  "updatedAt": "2022-12-08T09:37:56.807Z",
  "networkType": "ethereum",
  "devdoc": {
    "kind": "dev",
    "methods": {},
    "version": 1
  },
  "userdoc": {
    "kind": "user",
    "methods": {},
    "version": 1
  }
}