{
  "contractName": "RailRoad",
  "abi": [
    {
      "inputs": [
        {
          "internalType": "address",
          "name": "_admin",
          "type": "address"
        },
        {
          "internalType": "uint256",
          "name": "_ticketPrice",
          "type": "uint256"
        }
      ],
      "stateMutability": "nonpayable",
      "type": "constructor"
    },
    {
      "inputs": [
        {
          "internalType": "string",
          "name": "",
          "type": "string"
        }
      ],
      "name": "TicketTypes",
      "outputs": [
        {
          "internalType": "bool",
          "name": "",
          "type": "bool"
        }
      ],
      "stateMutability": "view",
      "type": "function"
    },
    {
      "inputs": [],
      "name": "admin",
      "outputs": [
        {
          "internalType": "address",
          "name": "",
          "type": "address"
        }
      ],
      "stateMutability": "view",
      "type": "function"
    },
    {
      "inputs": [],
      "name": "adminPayble",
      "outputs": [
        {
          "internalType": "address payable",
          "name": "",
          "type": "address"
        }
      ],
      "stateMutability": "view",
      "type": "function"
    },
    {
      "inputs": [
        {
          "internalType": "uint256",
          "name": "",
          "type": "uint256"
        }
      ],
      "name": "cards",
      "outputs": [
        {
          "internalType": "uint256",
          "name": "id",
          "type": "uint256"
        },
        {
          "internalType": "string",
          "name": "name",
          "type": "string"
        },
        {
          "internalType": "uint256",
          "name": "price",
          "type": "uint256"
        },
        {
          "internalType": "uint256",
          "name": "discount",
          "type": "uint256"
        },
        {
          "internalType": "string",
          "name": "image",
          "type": "string"
        },
        {
          "internalType": "string",
          "name": "description",
          "type": "string"
        },
        {
          "internalType": "address",
          "name": "owner",
          "type": "address"
        },
        {
          "internalType": "uint256",
          "name": "groupId",
          "type": "uint256"
        }
      ],
      "stateMutability": "view",
      "type": "function"
    },
    {
      "inputs": [],
      "name": "groupId",
      "outputs": [
        {
          "internalType": "uint256",
          "name": "",
          "type": "uint256"
        }
      ],
      "stateMutability": "view",
      "type": "function"
    },
    {
      "inputs": [
        {
          "internalType": "uint256",
          "name": "",
          "type": "uint256"
        }
      ],
      "name": "tickets",
      "outputs": [
        {
          "internalType": "string",
          "name": "ticketType",
          "type": "string"
        },
        {
          "internalType": "address",
          "name": "owner",
          "type": "address"
        }
      ],
      "stateMutability": "view",
      "type": "function"
    },
    {
      "inputs": [],
      "name": "isAdmin",
      "outputs": [
        {
          "internalType": "bool",
          "name": "",
          "type": "bool"
        }
      ],
      "stateMutability": "view",
      "type": "function"
    },
    {
      "inputs": [
        {
          "internalType": "string",
          "name": "name",
          "type": "string"
        },
        {
          "internalType": "uint256",
          "name": "price",
          "type": "uint256"
        },
        {
          "internalType": "uint256",
          "name": "count",
          "type": "uint256"
        },
        {
          "internalType": "uint256",
          "name": "discount",
          "type": "uint256"
        },
        {
          "internalType": "string",
          "name": "image",
          "type": "string"
        },
        {
          "internalType": "string",
          "name": "description",
          "type": "string"
        }
      ],
      "name": "createCard",
      "outputs": [],
      "stateMutability": "nonpayable",
      "type": "function"
    },
    {
      "inputs": [],
      "name": "getMyCards",
      "outputs": [
        {
          "components": [
            {
              "internalType": "uint256",
              "name": "id",
              "type": "uint256"
            },
            {
              "internalType": "string",
              "name": "name",
              "type": "string"
            },
            {
              "internalType": "uint256",
              "name": "price",
              "type": "uint256"
            },
            {
              "internalType": "uint256",
              "name": "discount",
              "type": "uint256"
            },
            {
              "internalType": "string",
              "name": "image",
              "type": "string"
            },
            {
              "internalType": "string",
              "name": "description",
              "type": "string"
            },
            {
              "internalType": "address",
              "name": "owner",
              "type": "address"
            },
            {
              "internalType": "uint256",
              "name": "groupId",
              "type": "uint256"
            }
          ],
          "internalType": "struct RailRoad.Card[]",
          "name": "",
          "type": "tuple[]"
        }
      ],
      "stateMutability": "view",
      "type": "function"
    },
    {
      "inputs": [],
      "name": "getAvailableCards",
      "outputs": [
        {
          "components": [
            {
              "internalType": "uint256",
              "name": "id",
              "type": "uint256"
            },
            {
              "internalType": "string",
              "name": "name",
              "type": "string"
            },
            {
              "internalType": "uint256",
              "name": "price",
              "type": "uint256"
            },
            {
              "internalType": "uint256",
              "name": "discount",
              "type": "uint256"
            },
            {
              "internalType": "string",
              "name": "image",
              "type": "string"
            },
            {
              "internalType": "string",
              "name": "description",
              "type": "string"
            },
            {
              "internalType": "address",
              "name": "owner",
              "type": "address"
            },
            {
              "internalType": "uint256",
              "name": "groupId",
              "type": "uint256"
            }
          ],
          "internalType": "struct RailRoad.Card[]",
          "name": "",
          "type": "tuple[]"
        }
      ],
      "stateMutability": "view",
      "type": "function"
    },
    {
      "inputs": [],
      "name": "retrieveAllCards",
      "outputs": [
        {
          "components": [
            {
              "internalType": "uint256",
              "name": "id",
              "type": "uint256"
            },
            {
              "internalType": "string",
              "name": "name",
              "type": "string"
            },
            {
              "internalType": "uint256",
              "name": "price",
              "type": "uint256"
            },
            {
              "internalType": "uint256",
              "name": "discount",
              "type": "uint256"
            },
            {
              "internalType": "string",
              "name": "image",
              "type": "string"
            },
            {
              "internalType": "string",
              "name": "description",
              "type": "string"
            },
            {
              "internalType": "address",
              "name": "owner",
              "type": "address"
            },
            {
              "internalType": "uint256",
              "name": "groupId",
              "type": "uint256"
            }
          ],
          "internalType": "struct RailRoad.Card[]",
          "name": "",
          "type": "tuple[]"
        }
      ],
      "stateMutability": "view",
      "type": "function"
    },
    {
      "inputs": [
        {
          "internalType": "uint256",
          "name": "id",
          "type": "uint256"
        }
      ],
      "name": "buyCard",
      "outputs": [
        {
          "components": [
            {
              "internalType": "uint256",
              "name": "id",
              "type": "uint256"
            },
            {
              "internalType": "string",
              "name": "name",
              "type": "string"
            },
            {
              "internalType": "uint256",
              "name": "price",
              "type": "uint256"
            },
            {
              "internalType": "uint256",
              "name": "discount",
              "type": "uint256"
            },
            {
              "internalType": "string",
              "name": "image",
              "type": "string"
            },
            {
              "internalType": "string",
              "name": "description",
              "type": "string"
            },
            {
              "internalType": "address",
              "name": "owner",
              "type": "address"
            },
            {
              "internalType": "uint256",
              "name": "groupId",
              "type": "uint256"
            }
          ],
          "internalType": "struct RailRoad.Card",
          "name": "card",
          "type": "tuple"
        }
      ],
      "stateMutability": "payable",
      "type": "function"
    },
    {
      "inputs": [
        {
          "internalType": "uint256",
          "name": "id",
          "type": "uint256"
        },
        {
          "internalType": "address",
          "name": "userToGive",
          "type": "address"
        }
      ],
      "name": "giveCard",
      "outputs": [
        {
          "internalType": "bool",
          "name": "success",
          "type": "bool"
        }
      ],
      "stateMutability": "nonpayable",
      "type": "function"
    },
    {
      "inputs": [],
      "name": "ticketPriceAfterDiscount",
      "outputs": [
        {
          "internalType": "uint256",
          "name": "price",
          "type": "uint256"
        }
      ],
      "stateMutability": "view",
      "type": "function"
    },
    {
      "inputs": [
        {
          "internalType": "string",
          "name": "typeTicket",
          "type": "string"
        }
      ],
      "name": "buyTicket",
      "outputs": [
        {
          "components": [
            {
              "internalType": "string",
              "name": "ticketType",
              "type": "string"
            },
            {
              "internalType": "address",
              "name": "owner",
              "type": "address"
            }
          ],
          "internalType": "struct RailRoad.Ticket",
          "name": "ticket",
          "type": "tuple"
        }
      ],
      "stateMutability": "payable",
      "type": "function"
    },
    {
      "inputs": [],
      "name": "getMyTickets",
      "outputs": [
        {
          "components": [
            {
              "internalType": "string",
              "name": "ticketType",
              "type": "string"
            },
            {
              "internalType": "address",
              "name": "owner",
              "type": "address"
            }
          ],
          "internalType": "struct RailRoad.Ticket[]",
          "name": "",
          "type": "tuple[]"
        }
      ],
      "stateMutability": "view",
      "type": "function"
    }
  ],
  "bytecode": "0x60806040523480156200001157600080fd5b506040516200367b3803806200367b833981810160405281019062000037919062000211565b816000806101000a81548173ffffffffffffffffffffffffffffffffffffffff021916908373ffffffffffffffffffffffffffffffffffffffff16021790555081600160006101000a81548173ffffffffffffffffffffffffffffffffffffffff021916908373ffffffffffffffffffffffffffffffffffffffff1602179055508060038190555060016004604051620000d190620002b3565b908152602001604051809103902060006101000a81548160ff0219169083151502179055506001600460405162000108906200031a565b908152602001604051809103902060006101000a81548160ff021916908315150217905550600160046040516200013f9062000381565b908152602001604051809103902060006101000a81548160ff021916908315150217905550505062000398565b600080fd5b600073ffffffffffffffffffffffffffffffffffffffff82169050919050565b60006200019e8262000171565b9050919050565b620001b08162000191565b8114620001bc57600080fd5b50565b600081519050620001d081620001a5565b92915050565b6000819050919050565b620001eb81620001d6565b8114620001f757600080fd5b50565b6000815190506200020b81620001e0565b92915050565b600080604083850312156200022b576200022a6200016c565b5b60006200023b85828601620001bf565b92505060206200024e85828601620001fa565b9150509250929050565b600081905092915050565b7f6275730000000000000000000000000000000000000000000000000000000000600082015250565b60006200029b60038362000258565b9150620002a88262000263565b600382019050919050565b6000620002c0826200028c565b9150819050919050565b7f747261696e000000000000000000000000000000000000000000000000000000600082015250565b60006200030260058362000258565b91506200030f82620002ca565b600582019050919050565b60006200032782620002f3565b9150819050919050565b7f7375627761790000000000000000000000000000000000000000000000000000600082015250565b60006200036960068362000258565b9150620003768262000331565b600682019050919050565b60006200038e826200035a565b9150819050919050565b6132d380620003a86000396000f3fe6080604052600436106100f35760003560e01c8063b6db75a01161008a578063eaefdbb911610059578063eaefdbb91461033d578063ed92c4bb1461037a578063f851a440146103a5578063fa30b251146103d0576100f3565b8063b6db75a01461028c578063bf87bf3c146102b7578063c70f5eaa146102e2578063e1d10d8514610312576100f3565b8063737acd0d116100c6578063737acd0d146101c757806379e4a5b7146101f25780638dc107681461021d578063a0f44c9214610261576100f3565b80631626e7e5146100f857806350b44712146101215780635c7431111461015f5780635da8e1071461019c575b600080fd5b34801561010457600080fd5b5061011f600480360381019061011a919061255e565b610400565b005b34801561012d57600080fd5b506101486004803603810190610143919061263f565b61061e565b604051610156929190612735565b60405180910390f35b34801561016b57600080fd5b5061018660048036038101906101819190612765565b6106fa565b60405161019391906127c9565b60405180910390f35b3480156101a857600080fd5b506101b1610730565b6040516101be91906127f3565b60405180910390f35b3480156101d357600080fd5b506101dc610860565b6040516101e9919061282f565b60405180910390f35b3480156101fe57600080fd5b50610207610886565b6040516102149190612a32565b60405180910390f35b34801561022957600080fd5b50610244600480360381019061023f919061263f565b610ccb565b604051610258989796959493929190612a54565b60405180910390f35b34801561026d57600080fd5b50610276610edb565b60405161028391906127f3565b60405180910390f35b34801561029857600080fd5b506102a1610ee1565b6040516102ae91906127c9565b60405180910390f35b3480156102c357600080fd5b506102cc610f38565b6040516102d99190612a32565b60405180910390f35b6102fc60048036038101906102f7919061263f565b61125a565b6040516103099190612ba5565b60405180910390f35b34801561031e57600080fd5b506103276116e2565b6040516103349190612cc6565b60405180910390f35b34801561034957600080fd5b50610364600480360381019061035f9190612d14565b6119d8565b60405161037191906127c9565b60405180910390f35b34801561038657600080fd5b5061038f611b96565b60405161039c9190612a32565b60405180910390f35b3480156103b157600080fd5b506103ba611fd9565b6040516103c79190612d54565b60405180910390f35b6103ea60048036038101906103e59190612765565b611ffd565b6040516103f79190612dac565b60405180910390f35b60008054906101000a900473ffffffffffffffffffffffffffffffffffffffff1673ffffffffffffffffffffffffffffffffffffffff163373ffffffffffffffffffffffffffffffffffffffff161461048e576040517f08c379a000000000000000000000000000000000000000000000000000000000815260040161048590612e1a565b60405180910390fd5b60005b848110156105fd5760006040518061010001604052806005805490508152602001898152602001888152602001868152602001858152602001848152602001600073ffffffffffffffffffffffffffffffffffffffff168152602001600254815250905060058190806001815401808255809150506001900390600052602060002090600802016000909190919091506000820151816000015560208201518160010190805190602001906105479291906122a0565b50604082015181600201556060820151816003015560808201518160040190805190602001906105789291906122a0565b5060a08201518160050190805190602001906105959291906122a0565b5060c08201518160060160006101000a81548173ffffffffffffffffffffffffffffffffffffffff021916908373ffffffffffffffffffffffffffffffffffffffff16021790555060e0820151816007015550505080806105f590612e69565b915050610491565b506002600081548092919061061190612e69565b9190505550505050505050565b6006818154811061062e57600080fd5b906000526020600020906002020160009150905080600001805461065190612ee0565b80601f016020809104026020016040519081016040528092919081815260200182805461067d90612ee0565b80156106ca5780601f1061069f576101008083540402835291602001916106ca565b820191906000526020600020905b8154815290600101906020018083116106ad57829003601f168201915b5050505050908060010160009054906101000a900473ffffffffffffffffffffffffffffffffffffffff16905082565b6004818051602081018201805184825260208301602085012081835280955050505050506000915054906101000a900460ff1681565b6000806000905060005b60058054905081101561082c573373ffffffffffffffffffffffffffffffffffffffff166005828154811061077257610771612f11565b5b906000526020600020906008020160060160009054906101000a900473ffffffffffffffffffffffffffffffffffffffff1673ffffffffffffffffffffffffffffffffffffffff161480156107eb575081600582815481106107d7576107d6612f11565b5b906000526020600020906008020160030154115b15610819576005818154811061080457610803612f11565b5b90600052602060002090600802016003015491505b808061082490612e69565b91505061073a565b50600060648260035461083f9190612f40565b6108499190612fc9565b9050806003546108599190612ffa565b9250505090565b600160009054906101000a900473ffffffffffffffffffffffffffffffffffffffff1681565b6060600080600090505b60058054905081101561093857600073ffffffffffffffffffffffffffffffffffffffff16600582815481106108c9576108c8612f11565b5b906000526020600020906008020160060160009054906101000a900473ffffffffffffffffffffffffffffffffffffffff1673ffffffffffffffffffffffffffffffffffffffff160361092557818061092190612e69565b9250505b808061093090612e69565b915050610890565b5060008167ffffffffffffffff811115610955576109546123fd565b5b60405190808252806020026020018201604052801561098e57816020015b61097b612326565b8152602001906001900390816109735790505b509050600080600090505b600580549050811015610cc157600073ffffffffffffffffffffffffffffffffffffffff16600582815481106109d2576109d1612f11565b5b906000526020600020906008020160060160009054906101000a900473ffffffffffffffffffffffffffffffffffffffff1673ffffffffffffffffffffffffffffffffffffffff1603610cae5760058181548110610a3357610a32612f11565b5b90600052602060002090600802016040518061010001604052908160008201548152602001600182018054610a6790612ee0565b80601f0160208091040260200160405190810160405280929190818152602001828054610a9390612ee0565b8015610ae05780601f10610ab557610100808354040283529160200191610ae0565b820191906000526020600020905b815481529060010190602001808311610ac357829003601f168201915b505050505081526020016002820154815260200160038201548152602001600482018054610b0d90612ee0565b80601f0160208091040260200160405190810160405280929190818152602001828054610b3990612ee0565b8015610b865780601f10610b5b57610100808354040283529160200191610b86565b820191906000526020600020905b815481529060010190602001808311610b6957829003601f168201915b50505050508152602001600582018054610b9f90612ee0565b80601f0160208091040260200160405190810160405280929190818152602001828054610bcb90612ee0565b8015610c185780601f10610bed57610100808354040283529160200191610c18565b820191906000526020600020905b815481529060010190602001808311610bfb57829003601f168201915b505050505081526020016006820160009054906101000a900473ffffffffffffffffffffffffffffffffffffffff1673ffffffffffffffffffffffffffffffffffffffff1673ffffffffffffffffffffffffffffffffffffffff168152602001600782015481525050838381518110610c9457610c93612f11565b5b60200260200101819052508180610caa90612e69565b9250505b8080610cb990612e69565b915050610999565b5081935050505090565b60058181548110610cdb57600080fd5b9060005260206000209060080201600091509050806000015490806001018054610d0490612ee0565b80601f0160208091040260200160405190810160405280929190818152602001828054610d3090612ee0565b8015610d7d5780601f10610d5257610100808354040283529160200191610d7d565b820191906000526020600020905b815481529060010190602001808311610d6057829003601f168201915b505050505090806002015490806003015490806004018054610d9e90612ee0565b80601f0160208091040260200160405190810160405280929190818152602001828054610dca90612ee0565b8015610e175780601f10610dec57610100808354040283529160200191610e17565b820191906000526020600020905b815481529060010190602001808311610dfa57829003601f168201915b505050505090806005018054610e2c90612ee0565b80601f0160208091040260200160405190810160405280929190818152602001828054610e5890612ee0565b8015610ea55780601f10610e7a57610100808354040283529160200191610ea5565b820191906000526020600020905b815481529060010190602001808311610e8857829003601f168201915b5050505050908060060160009054906101000a900473ffffffffffffffffffffffffffffffffffffffff16908060070154905088565b60025481565b60008060009054906101000a900473ffffffffffffffffffffffffffffffffffffffff1673ffffffffffffffffffffffffffffffffffffffff163373ffffffffffffffffffffffffffffffffffffffff1614905090565b606060008054906101000a900473ffffffffffffffffffffffffffffffffffffffff1673ffffffffffffffffffffffffffffffffffffffff163373ffffffffffffffffffffffffffffffffffffffff1614610fc8576040517f08c379a0000000000000000000000000000000000000000000000000000000008152600401610fbf90612e1a565b60405180910390fd5b6005805480602002602001604051908101604052809291908181526020016000905b828210156112515783829060005260206000209060080201604051806101000160405290816000820154815260200160018201805461102890612ee0565b80601f016020809104026020016040519081016040528092919081815260200182805461105490612ee0565b80156110a15780601f10611076576101008083540402835291602001916110a1565b820191906000526020600020905b81548152906001019060200180831161108457829003601f168201915b5050505050815260200160028201548152602001600382015481526020016004820180546110ce90612ee0565b80601f01602080910402602001604051908101604052809291908181526020018280546110fa90612ee0565b80156111475780601f1061111c57610100808354040283529160200191611147565b820191906000526020600020905b81548152906001019060200180831161112a57829003601f168201915b5050505050815260200160058201805461116090612ee0565b80601f016020809104026020016040519081016040528092919081815260200182805461118c90612ee0565b80156111d95780601f106111ae576101008083540402835291602001916111d9565b820191906000526020600020905b8154815290600101906020018083116111bc57829003601f168201915b505050505081526020016006820160009054906101000a900473ffffffffffffffffffffffffffffffffffffffff1673ffffffffffffffffffffffffffffffffffffffff1673ffffffffffffffffffffffffffffffffffffffff16815260200160078201548152505081526020019060010190610fea565b50505050905090565b611262612326565b60005b60058054905081101561169a57826005828154811061128757611286612f11565b5b9060005260206000209060080201600001540361168757600073ffffffffffffffffffffffffffffffffffffffff16600582815481106112ca576112c9612f11565b5b906000526020600020906008020160060160009054906101000a900473ffffffffffffffffffffffffffffffffffffffff1673ffffffffffffffffffffffffffffffffffffffff1614611352576040517f08c379a00000000000000000000000000000000000000000000000000000000081526004016113499061307a565b60405180910390fd5b346005828154811061136757611366612f11565b5b906000526020600020906008020160020154146113b9576040517f08c379a00000000000000000000000000000000000000000000000000000000081526004016113b0906130e6565b60405180910390fd5b33600582815481106113ce576113cd612f11565b5b906000526020600020906008020160060160006101000a81548173ffffffffffffffffffffffffffffffffffffffff021916908373ffffffffffffffffffffffffffffffffffffffff1602179055506005818154811061143157611430612f11565b5b9060005260206000209060080201604051806101000160405290816000820154815260200160018201805461146590612ee0565b80601f016020809104026020016040519081016040528092919081815260200182805461149190612ee0565b80156114de5780601f106114b3576101008083540402835291602001916114de565b820191906000526020600020905b8154815290600101906020018083116114c157829003601f168201915b50505050508152602001600282015481526020016003820154815260200160048201805461150b90612ee0565b80601f016020809104026020016040519081016040528092919081815260200182805461153790612ee0565b80156115845780601f1061155957610100808354040283529160200191611584565b820191906000526020600020905b81548152906001019060200180831161156757829003601f168201915b5050505050815260200160058201805461159d90612ee0565b80601f01602080910402602001604051908101604052809291908181526020018280546115c990612ee0565b80156116165780601f106115eb57610100808354040283529160200191611616565b820191906000526020600020905b8154815290600101906020018083116115f957829003601f168201915b505050505081526020016006820160009054906101000a900473ffffffffffffffffffffffffffffffffffffffff1673ffffffffffffffffffffffffffffffffffffffff1673ffffffffffffffffffffffffffffffffffffffff1681526020016007820154815250509150506116dd565b808061169290612e69565b915050611265565b5060006116dc576040517f08c379a00000000000000000000000000000000000000000000000000000000081526004016116d390613152565b60405180910390fd5b5b919050565b6060600080600090505b600680549050811015611793573373ffffffffffffffffffffffffffffffffffffffff166006828154811061172457611723612f11565b5b906000526020600020906002020160010160009054906101000a900473ffffffffffffffffffffffffffffffffffffffff1673ffffffffffffffffffffffffffffffffffffffff160361178057818061177c90612e69565b9250505b808061178b90612e69565b9150506116ec565b5060008167ffffffffffffffff8111156117b0576117af6123fd565b5b6040519080825280602002602001820160405280156117e957816020015b6117d6612381565b8152602001906001900390816117ce5790505b509050600080600090505b6006805490508110156119ce573373ffffffffffffffffffffffffffffffffffffffff166006828154811061182c5761182b612f11565b5b906000526020600020906002020160010160009054906101000a900473ffffffffffffffffffffffffffffffffffffffff1673ffffffffffffffffffffffffffffffffffffffff16036119bb576006818154811061188d5761188c612f11565b5b90600052602060002090600202016040518060400160405290816000820180546118b690612ee0565b80601f01602080910402602001604051908101604052809291908181526020018280546118e290612ee0565b801561192f5780601f106119045761010080835404028352916020019161192f565b820191906000526020600020905b81548152906001019060200180831161191257829003601f168201915b505050505081526020016001820160009054906101000a900473ffffffffffffffffffffffffffffffffffffffff1673ffffffffffffffffffffffffffffffffffffffff1673ffffffffffffffffffffffffffffffffffffffff16815250508383815181106119a1576119a0612f11565b5b602002602001018190525081806119b790612e69565b9250505b80806119c690612e69565b9150506117f4565b5081935050505090565b600080600090505b600580549050811015611b4d578360058281548110611a0257611a01612f11565b5b90600052602060002090600802016000015403611b3a573373ffffffffffffffffffffffffffffffffffffffff1660058281548110611a4457611a43612f11565b5b906000526020600020906008020160060160009054906101000a900473ffffffffffffffffffffffffffffffffffffffff1673ffffffffffffffffffffffffffffffffffffffff1614611acc576040517f08c379a0000000000000000000000000000000000000000000000000000000008152600401611ac3906131be565b60405180910390fd5b8260058281548110611ae157611ae0612f11565b5b906000526020600020906008020160060160006101000a81548173ffffffffffffffffffffffffffffffffffffffff021916908373ffffffffffffffffffffffffffffffffffffffff1602179055506001915050611b90565b8080611b4590612e69565b9150506119e0565b506000611b8f576040517f08c379a0000000000000000000000000000000000000000000000000000000008152600401611b8690613152565b60405180910390fd5b5b92915050565b6060600080600090505b600580549050811015611c47573373ffffffffffffffffffffffffffffffffffffffff1660058281548110611bd857611bd7612f11565b5b906000526020600020906008020160060160009054906101000a900473ffffffffffffffffffffffffffffffffffffffff1673ffffffffffffffffffffffffffffffffffffffff1603611c34578180611c3090612e69565b9250505b8080611c3f90612e69565b915050611ba0565b5060008167ffffffffffffffff811115611c6457611c636123fd565b5b604051908082528060200260200182016040528015611c9d57816020015b611c8a612326565b815260200190600190039081611c825790505b509050600080600090505b600580549050811015611fcf573373ffffffffffffffffffffffffffffffffffffffff1660058281548110611ce057611cdf612f11565b5b906000526020600020906008020160060160009054906101000a900473ffffffffffffffffffffffffffffffffffffffff1673ffffffffffffffffffffffffffffffffffffffff1603611fbc5760058181548110611d4157611d40612f11565b5b90600052602060002090600802016040518061010001604052908160008201548152602001600182018054611d7590612ee0565b80601f0160208091040260200160405190810160405280929190818152602001828054611da190612ee0565b8015611dee5780601f10611dc357610100808354040283529160200191611dee565b820191906000526020600020905b815481529060010190602001808311611dd157829003601f168201915b505050505081526020016002820154815260200160038201548152602001600482018054611e1b90612ee0565b80601f0160208091040260200160405190810160405280929190818152602001828054611e4790612ee0565b8015611e945780601f10611e6957610100808354040283529160200191611e94565b820191906000526020600020905b815481529060010190602001808311611e7757829003601f168201915b50505050508152602001600582018054611ead90612ee0565b80601f0160208091040260200160405190810160405280929190818152602001828054611ed990612ee0565b8015611f265780601f10611efb57610100808354040283529160200191611f26565b820191906000526020600020905b815481529060010190602001808311611f0957829003601f168201915b505050505081526020016006820160009054906101000a900473ffffffffffffffffffffffffffffffffffffffff1673ffffffffffffffffffffffffffffffffffffffff1673ffffffffffffffffffffffffffffffffffffffff168152602001600782015481525050838381518110611fa257611fa1612f11565b5b60200260200101819052508180611fb890612e69565b9250505b8080611fc790612e69565b915050611ca8565b5081935050505090565b60008054906101000a900473ffffffffffffffffffffffffffffffffffffffff1681565b612005612381565b6000805b6005805490508110156120fb573373ffffffffffffffffffffffffffffffffffffffff166005828154811061204157612040612f11565b5b906000526020600020906008020160060160009054906101000a900473ffffffffffffffffffffffffffffffffffffffff1673ffffffffffffffffffffffffffffffffffffffff161480156120ba575081600582815481106120a6576120a5612f11565b5b906000526020600020906008020160030154115b156120e857600581815481106120d3576120d2612f11565b5b90600052602060002090600802016003015491505b80806120f390612e69565b915050612009565b50600060648260035461210e9190612f40565b6121189190612fc9565b905034816003546121299190612ffa565b14612169576040517f08c379a0000000000000000000000000000000000000000000000000000000008152600401612160906130e6565b60405180910390fd5b600484604051612179919061321a565b908152602001604051809103902060009054906101000a900460ff166121d4576040517f08c379a00000000000000000000000000000000000000000000000000000000081526004016121cb9061327d565b60405180910390fd5b600060405180604001604052808681526020013373ffffffffffffffffffffffffffffffffffffffff1681525090506006819080600181540180825580915050600190039060005260206000209060020201600090919091909150600082015181600001908051906020019061224b9291906122a0565b5060208201518160010160006101000a81548173ffffffffffffffffffffffffffffffffffffffff021916908373ffffffffffffffffffffffffffffffffffffffff1602179055505050809350505050919050565b8280546122ac90612ee0565b90600052602060002090601f0160209004810192826122ce5760008555612315565b82601f106122e757805160ff1916838001178555612315565b82800160010185558215612315579182015b828111156123145782518255916020019190600101906122f9565b5b50905061232291906123b1565b5090565b604051806101000160405280600081526020016060815260200160008152602001600081526020016060815260200160608152602001600073ffffffffffffffffffffffffffffffffffffffff168152602001600081525090565b604051806040016040528060608152602001600073ffffffffffffffffffffffffffffffffffffffff1681525090565b5b808211156123ca5760008160009055506001016123b2565b5090565b6000604051905090565b600080fd5b600080fd5b600080fd5b600080fd5b6000601f19601f8301169050919050565b7f4e487b7100000000000000000000000000000000000000000000000000000000600052604160045260246000fd5b612435826123ec565b810181811067ffffffffffffffff82111715612454576124536123fd565b5b80604052505050565b60006124676123ce565b9050612473828261242c565b919050565b600067ffffffffffffffff821115612493576124926123fd565b5b61249c826123ec565b9050602081019050919050565b82818337600083830152505050565b60006124cb6124c684612478565b61245d565b9050828152602081018484840111156124e7576124e66123e7565b5b6124f28482856124a9565b509392505050565b600082601f83011261250f5761250e6123e2565b5b813561251f8482602086016124b8565b91505092915050565b6000819050919050565b61253b81612528565b811461254657600080fd5b50565b60008135905061255881612532565b92915050565b60008060008060008060c0878903121561257b5761257a6123d8565b5b600087013567ffffffffffffffff811115612599576125986123dd565b5b6125a589828a016124fa565b96505060206125b689828a01612549565b95505060406125c789828a01612549565b94505060606125d889828a01612549565b935050608087013567ffffffffffffffff8111156125f9576125f86123dd565b5b61260589828a016124fa565b92505060a087013567ffffffffffffffff811115612626576126256123dd565b5b61263289828a016124fa565b9150509295509295509295565b600060208284031215612655576126546123d8565b5b600061266384828501612549565b91505092915050565b600081519050919050565b600082825260208201905092915050565b60005b838110156126a657808201518184015260208101905061268b565b838111156126b5576000848401525b50505050565b60006126c68261266c565b6126d08185612677565b93506126e0818560208601612688565b6126e9816123ec565b840191505092915050565b600073ffffffffffffffffffffffffffffffffffffffff82169050919050565b600061271f826126f4565b9050919050565b61272f81612714565b82525050565b6000604082019050818103600083015261274f81856126bb565b905061275e6020830184612726565b9392505050565b60006020828403121561277b5761277a6123d8565b5b600082013567ffffffffffffffff811115612799576127986123dd565b5b6127a5848285016124fa565b91505092915050565b60008115159050919050565b6127c3816127ae565b82525050565b60006020820190506127de60008301846127ba565b92915050565b6127ed81612528565b82525050565b600060208201905061280860008301846127e4565b92915050565b6000612819826126f4565b9050919050565b6128298161280e565b82525050565b60006020820190506128446000830184612820565b92915050565b600081519050919050565b600082825260208201905092915050565b6000819050602082019050919050565b61287f81612528565b82525050565b600082825260208201905092915050565b60006128a18261266c565b6128ab8185612885565b93506128bb818560208601612688565b6128c4816123ec565b840191505092915050565b6128d881612714565b82525050565b6000610100830160008301516128f76000860182612876565b506020830151848203602086015261290f8282612896565b91505060408301516129246040860182612876565b5060608301516129376060860182612876565b506080830151848203608086015261294f8282612896565b91505060a083015184820360a08601526129698282612896565b91505060c083015161297e60c08601826128cf565b5060e083015161299160e0860182612876565b508091505092915050565b60006129a883836128de565b905092915050565b6000602082019050919050565b60006129c88261284a565b6129d28185612855565b9350836020820285016129e485612866565b8060005b85811015612a205784840389528151612a01858261299c565b9450612a0c836129b0565b925060208a019950506001810190506129e8565b50829750879550505050505092915050565b60006020820190508181036000830152612a4c81846129bd565b905092915050565b600061010082019050612a6a600083018b6127e4565b8181036020830152612a7c818a6126bb565b9050612a8b60408301896127e4565b612a9860608301886127e4565b8181036080830152612aaa81876126bb565b905081810360a0830152612abe81866126bb565b9050612acd60c0830185612726565b612ada60e08301846127e4565b9998505050505050505050565b600061010083016000830151612b006000860182612876565b5060208301518482036020860152612b188282612896565b9150506040830151612b2d6040860182612876565b506060830151612b406060860182612876565b5060808301518482036080860152612b588282612896565b91505060a083015184820360a0860152612b728282612896565b91505060c0830151612b8760c08601826128cf565b5060e0830151612b9a60e0860182612876565b508091505092915050565b60006020820190508181036000830152612bbf8184612ae7565b905092915050565b600081519050919050565b600082825260208201905092915050565b6000819050602082019050919050565b60006040830160008301518482036000860152612c108282612896565b9150506020830151612c2560208601826128cf565b508091505092915050565b6000612c3c8383612bf3565b905092915050565b6000602082019050919050565b6000612c5c82612bc7565b612c668185612bd2565b935083602082028501612c7885612be3565b8060005b85811015612cb45784840389528151612c958582612c30565b9450612ca083612c44565b925060208a01995050600181019050612c7c565b50829750879550505050505092915050565b60006020820190508181036000830152612ce08184612c51565b905092915050565b612cf181612714565b8114612cfc57600080fd5b50565b600081359050612d0e81612ce8565b92915050565b60008060408385031215612d2b57612d2a6123d8565b5b6000612d3985828601612549565b9250506020612d4a85828601612cff565b9150509250929050565b6000602082019050612d696000830184612726565b92915050565b60006040830160008301518482036000860152612d8c8282612896565b9150506020830151612da160208601826128cf565b508091505092915050565b60006020820190508181036000830152612dc68184612d6f565b905092915050565b7f596f75277265206e6f74207468652061646d696e000000000000000000000000600082015250565b6000612e04601483612677565b9150612e0f82612dce565b602082019050919050565b60006020820190508181036000830152612e3381612df7565b9050919050565b7f4e487b7100000000000000000000000000000000000000000000000000000000600052601160045260246000fd5b6000612e7482612528565b91507fffffffffffffffffffffffffffffffffffffffffffffffffffffffffffffffff8203612ea657612ea5612e3a565b5b600182019050919050565b7f4e487b7100000000000000000000000000000000000000000000000000000000600052602260045260246000fd5b60006002820490506001821680612ef857607f821691505b602082108103612f0b57612f0a612eb1565b5b50919050565b7f4e487b7100000000000000000000000000000000000000000000000000000000600052603260045260246000fd5b6000612f4b82612528565b9150612f5683612528565b9250817fffffffffffffffffffffffffffffffffffffffffffffffffffffffffffffffff0483118215151615612f8f57612f8e612e3a565b5b828202905092915050565b7f4e487b7100000000000000000000000000000000000000000000000000000000600052601260045260246000fd5b6000612fd482612528565b9150612fdf83612528565b925082612fef57612fee612f9a565b5b828204905092915050565b600061300582612528565b915061301083612528565b92508282101561302357613022612e3a565b5b828203905092915050565b7f43617264206e6f7420617661696c61626c650000000000000000000000000000600082015250565b6000613064601283612677565b915061306f8261302e565b602082019050919050565b6000602082019050818103600083015261309381613057565b9050919050565b7f50726f626c656d652064616e73206c6520706169656d656e7400000000000000600082015250565b60006130d0601983612677565b91506130db8261309a565b602082019050919050565b600060208201905081810360008301526130ff816130c3565b9050919050565b7f4361726420646f65736e74206578697374000000000000000000000000000000600082015250565b600061313c601183612677565b915061314782613106565b602082019050919050565b6000602082019050818103600083015261316b8161312f565b9050919050565b7f43617264206e6f7420796f757273000000000000000000000000000000000000600082015250565b60006131a8600e83612677565b91506131b382613172565b602082019050919050565b600060208201905081810360008301526131d78161319b565b9050919050565b600081905092915050565b60006131f48261266c565b6131fe81856131de565b935061320e818560208601612688565b80840191505092915050565b600061322682846131e9565b915081905092915050565b7f43652074797065206465207469636b6574206e27657869737465207061730000600082015250565b6000613267601e83612677565b915061327282613231565b602082019050919050565b600060208201905081810360008301526132968161325a565b905091905056fea264697066735822122015478561c02782924c8b77e5686abdbc42d76f0bde9a5cf36b3976ab4e275dba64736f6c634300080d0033",
  "immutableReferences": {},
  "source": "// SPDX-License-Identifier: UNLICENSED\npragma solidity ^0.8.13;\n\ncontract RailRoad {\n    address public admin;\n    address payable public adminPayble;\n    uint public groupId;\n    uint ticketPrice;\n    mapping (string => bool) public TicketTypes;\n\n    Card[] public cards;\n    Ticket[] public tickets;\n\n    struct Card {\n        uint id;\n        string name;\n        uint price;\n        uint discount;\n        string image;\n        \n        string description;\n        address owner;\n        uint groupId;\n    }\n\n    struct Ticket {\n        string ticketType;\n        address owner;\n    }\n\n    modifier onlyAdmin() {\n        require(msg.sender == admin, \"You're not the admin\");\n        _;\n    }\n\n    constructor(address _admin, uint _ticketPrice) {\n        admin = _admin;\n        adminPayble = payable(_admin);\n        ticketPrice = _ticketPrice;\n\n        // Tickets types\n        TicketTypes[\"bus\"]=true;\n        TicketTypes[\"train\"]=true;\n        TicketTypes[\"subway\"]=true;\n    }\n\n    function isAdmin() public view returns (bool) {\n        return msg.sender == admin;\n    }\n\n    /**************\n         CARDS\n    **************/\n\n    function createCard(string memory name, uint price, uint count, uint discount, string memory image, string memory description) external onlyAdmin {\n        for (uint i = 0; i < count; i++) {\n            Card memory newCard = Card(cards.length, name, price, discount, image, description, address(0), groupId);\n            cards.push(newCard);\n        }\n        groupId++;\n    }\n\n    function getMyCards() public view returns (Card[] memory) {\n        uint count;\n        for (uint i = 0; i < cards.length; i++) {\n            if (cards[i].owner == msg.sender) {\n                count++;\n            }\n        }\n\n        Card[] memory myCards = new Card[](count);\n        uint256 j;\n        for (uint i = 0; i < cards.length; i++) {\n            if (cards[i].owner == msg.sender) {\n                myCards[j] = cards[i];\n                j++;\n            }\n        }\n\n        return myCards;\n    }\n\n    function getAvailableCards() public view returns (Card[] memory) {\n        uint count;\n        for (uint i = 0; i < cards.length; i++) {\n            if (cards[i].owner == address(0)) {\n                count++;\n            }\n        }\n\n        Card[] memory availableCards = new Card[](count);\n        uint256 j;\n        for (uint i = 0; i < cards.length; i++) {\n            if (cards[i].owner == address(0)) {\n                availableCards[j] = cards[i];\n                j++;\n            }\n        }\n\n        return availableCards;\n    }\n\n    function retrieveAllCards() external view onlyAdmin returns (Card[] memory){\n        return cards;\n    }\n\n    function buyCard(uint id) external payable returns (Card memory card) {\n\n        for(uint i = 0; i < cards.length; i++) {\n            if (cards[i].id == id) {\n                require(cards[i].owner == address(0), \"Card not available\");\n                require(cards[i].price == msg.value, \"Probleme dans le paiement\");\n                cards[i].owner = msg.sender;\n                return cards[i];\n\n                //(bool sent, bytes memory data) = adminPayble.call{value: 1000000000000000000}(\"\");\n                //require(sent, \"Failed to send Ether\");\n            }\n        }\n        require(false, \"Card doesnt exist\");\n    }\n\n    function giveCard(uint id, address userToGive) external returns (bool success) {\n        for(uint i = 0; i < cards.length; i++) {\n            if (cards[i].id == id) {\n                require(cards[i].owner == msg.sender, \"Card not yours\");\n                cards[i].owner = userToGive;\n                return true;\n            }\n        }\n        require(false, \"Card doesnt exist\");\n    }\n\n    /**************\n        TICKETS\n    **************/\n\n    function ticketPriceAfterDiscount() external view returns (uint price) {\n        uint amountDiscount = 0;\n        for (uint i = 0; i < cards.length; i++) {\n            if (cards[i].owner == msg.sender && cards[i].discount > amountDiscount) {\n                amountDiscount = cards[i].discount;\n            }    \n        }\n        uint reduction = (ticketPrice * amountDiscount) / 100;\n        return ticketPrice - reduction;\n    }\n\n    function buyTicket(string memory typeTicket) external payable returns (Ticket memory ticket) {\n\n        // Get Discount\n        uint amountDiscount = 0;\n        for (uint i = 0; i < cards.length; i++) {\n            if (cards[i].owner == msg.sender && cards[i].discount > amountDiscount) {\n                amountDiscount = cards[i].discount;\n            }    \n        }\n        uint reduction = (ticketPrice * amountDiscount) / 100;\n\n        require((ticketPrice - reduction) == msg.value, \"Probleme dans le paiement\");\n        require(TicketTypes[typeTicket], \"Ce type de ticket n'existe pas\");\n        Ticket memory newTicket = Ticket(typeTicket, msg.sender);\n        tickets.push(newTicket);\n\n        return newTicket;\n    }\n\n    function getMyTickets() public view returns (Ticket[] memory) {\n        uint count;\n        for (uint i = 0; i < tickets.length; i++) {\n            if (tickets[i].owner == msg.sender) {\n                count++;\n            }\n        }\n\n        Ticket[] memory myTickets = new Ticket[](count);\n        uint256 j;\n        for (uint i = 0; i < tickets.length; i++) {\n            if (tickets[i].owner == msg.sender) {\n                myTickets[j] = tickets[i];\n                j++;\n            }\n        }\n        return myTickets;\n    }\n}",
  "sourcePath": "/run/media/max/Stockage/dev/web/blockchain/truffle/contracts/railRoad.sol",
  "compiler": {
    "name": "solc",
    "version": "0.8.13+commit.abaa5c0e.Emscripten.clang"
  },
  "schemaVersion": "3.4.10",
  "updatedAt": "2022-12-08T15:05:54.408Z",
  "devdoc": {
    "kind": "dev",
    "methods": {},
    "version": 1
  },
  "userdoc": {
    "kind": "user",
    "methods": {},
    "version": 1
  }
}