{
  "contractName": "RailRoad",
  "abi": [
    {
      "inputs": [
        {
          "internalType": "address",
          "name": "_admin",
          "type": "address"
        },
        {
          "internalType": "uint256",
          "name": "_ticketPrice",
          "type": "uint256"
        }
      ],
      "stateMutability": "nonpayable",
      "type": "constructor"
    },
    {
      "inputs": [
        {
          "internalType": "string",
          "name": "",
          "type": "string"
        }
      ],
      "name": "TicketTypes",
      "outputs": [
        {
          "internalType": "bool",
          "name": "",
          "type": "bool"
        }
      ],
      "stateMutability": "view",
      "type": "function",
      "constant": true
    },
    {
      "inputs": [],
      "name": "admin",
      "outputs": [
        {
          "internalType": "address",
          "name": "",
          "type": "address"
        }
      ],
      "stateMutability": "view",
      "type": "function",
      "constant": true
    },
    {
      "inputs": [],
      "name": "adminPayble",
      "outputs": [
        {
          "internalType": "address payable",
          "name": "",
          "type": "address"
        }
      ],
      "stateMutability": "view",
      "type": "function",
      "constant": true
    },
    {
      "inputs": [
        {
          "internalType": "uint256",
          "name": "",
          "type": "uint256"
        }
      ],
      "name": "cards",
      "outputs": [
        {
          "internalType": "uint256",
          "name": "id",
          "type": "uint256"
        },
        {
          "internalType": "string",
          "name": "name",
          "type": "string"
        },
        {
          "internalType": "uint256",
          "name": "price",
          "type": "uint256"
        },
        {
          "internalType": "uint256",
          "name": "discount",
          "type": "uint256"
        },
        {
          "internalType": "string",
          "name": "image",
          "type": "string"
        },
        {
          "internalType": "string",
          "name": "description",
          "type": "string"
        },
        {
          "internalType": "address",
          "name": "owner",
          "type": "address"
        },
        {
          "internalType": "uint256",
          "name": "groupId",
          "type": "uint256"
        }
      ],
      "stateMutability": "view",
      "type": "function",
      "constant": true
    },
    {
      "inputs": [],
      "name": "groupId",
      "outputs": [
        {
          "internalType": "uint256",
          "name": "",
          "type": "uint256"
        }
      ],
      "stateMutability": "view",
      "type": "function",
      "constant": true
    },
    {
      "inputs": [
        {
          "internalType": "uint256",
          "name": "",
          "type": "uint256"
        }
      ],
      "name": "tickets",
      "outputs": [
        {
          "internalType": "string",
          "name": "ticketType",
          "type": "string"
        },
        {
          "internalType": "address",
          "name": "owner",
          "type": "address"
        }
      ],
      "stateMutability": "view",
      "type": "function",
      "constant": true
    },
    {
      "inputs": [],
      "name": "isAdmin",
      "outputs": [
        {
          "internalType": "bool",
          "name": "",
          "type": "bool"
        }
      ],
      "stateMutability": "view",
      "type": "function",
      "constant": true
    },
    {
      "inputs": [
        {
          "internalType": "string",
          "name": "name",
          "type": "string"
        },
        {
          "internalType": "uint256",
          "name": "price",
          "type": "uint256"
        },
        {
          "internalType": "uint256",
          "name": "count",
          "type": "uint256"
        },
        {
          "internalType": "uint256",
          "name": "discount",
          "type": "uint256"
        },
        {
          "internalType": "string",
          "name": "image",
          "type": "string"
        },
        {
          "internalType": "string",
          "name": "description",
          "type": "string"
        }
      ],
      "name": "createCard",
      "outputs": [],
      "stateMutability": "nonpayable",
      "type": "function"
    },
    {
      "inputs": [],
      "name": "getMyCards",
      "outputs": [
        {
          "components": [
            {
              "internalType": "uint256",
              "name": "id",
              "type": "uint256"
            },
            {
              "internalType": "string",
              "name": "name",
              "type": "string"
            },
            {
              "internalType": "uint256",
              "name": "price",
              "type": "uint256"
            },
            {
              "internalType": "uint256",
              "name": "discount",
              "type": "uint256"
            },
            {
              "internalType": "string",
              "name": "image",
              "type": "string"
            },
            {
              "internalType": "string",
              "name": "description",
              "type": "string"
            },
            {
              "internalType": "address",
              "name": "owner",
              "type": "address"
            },
            {
              "internalType": "uint256",
              "name": "groupId",
              "type": "uint256"
            }
          ],
          "internalType": "struct RailRoad.Card[]",
          "name": "",
          "type": "tuple[]"
        }
      ],
      "stateMutability": "view",
      "type": "function",
      "constant": true
    },
    {
      "inputs": [],
      "name": "getAvailableCards",
      "outputs": [
        {
          "components": [
            {
              "internalType": "uint256",
              "name": "id",
              "type": "uint256"
            },
            {
              "internalType": "string",
              "name": "name",
              "type": "string"
            },
            {
              "internalType": "uint256",
              "name": "price",
              "type": "uint256"
            },
            {
              "internalType": "uint256",
              "name": "discount",
              "type": "uint256"
            },
            {
              "internalType": "string",
              "name": "image",
              "type": "string"
            },
            {
              "internalType": "string",
              "name": "description",
              "type": "string"
            },
            {
              "internalType": "address",
              "name": "owner",
              "type": "address"
            },
            {
              "internalType": "uint256",
              "name": "groupId",
              "type": "uint256"
            }
          ],
          "internalType": "struct RailRoad.Card[]",
          "name": "",
          "type": "tuple[]"
        }
      ],
      "stateMutability": "view",
      "type": "function",
      "constant": true
    },
    {
      "inputs": [],
      "name": "retrieveAllCards",
      "outputs": [
        {
          "components": [
            {
              "internalType": "uint256",
              "name": "id",
              "type": "uint256"
            },
            {
              "internalType": "string",
              "name": "name",
              "type": "string"
            },
            {
              "internalType": "uint256",
              "name": "price",
              "type": "uint256"
            },
            {
              "internalType": "uint256",
              "name": "discount",
              "type": "uint256"
            },
            {
              "internalType": "string",
              "name": "image",
              "type": "string"
            },
            {
              "internalType": "string",
              "name": "description",
              "type": "string"
            },
            {
              "internalType": "address",
              "name": "owner",
              "type": "address"
            },
            {
              "internalType": "uint256",
              "name": "groupId",
              "type": "uint256"
            }
          ],
          "internalType": "struct RailRoad.Card[]",
          "name": "",
          "type": "tuple[]"
        }
      ],
      "stateMutability": "view",
      "type": "function",
      "constant": true
    },
    {
      "inputs": [
        {
          "internalType": "uint256",
          "name": "id",
          "type": "uint256"
        }
      ],
      "name": "buyCard",
      "outputs": [
        {
          "components": [
            {
              "internalType": "uint256",
              "name": "id",
              "type": "uint256"
            },
            {
              "internalType": "string",
              "name": "name",
              "type": "string"
            },
            {
              "internalType": "uint256",
              "name": "price",
              "type": "uint256"
            },
            {
              "internalType": "uint256",
              "name": "discount",
              "type": "uint256"
            },
            {
              "internalType": "string",
              "name": "image",
              "type": "string"
            },
            {
              "internalType": "string",
              "name": "description",
              "type": "string"
            },
            {
              "internalType": "address",
              "name": "owner",
              "type": "address"
            },
            {
              "internalType": "uint256",
              "name": "groupId",
              "type": "uint256"
            }
          ],
          "internalType": "struct RailRoad.Card",
          "name": "card",
          "type": "tuple"
        }
      ],
      "stateMutability": "payable",
      "type": "function",
      "payable": true
    },
    {
      "inputs": [
        {
          "internalType": "uint256",
          "name": "id",
          "type": "uint256"
        },
        {
          "internalType": "address",
          "name": "userToGive",
          "type": "address"
        }
      ],
      "name": "giveCard",
      "outputs": [
        {
          "internalType": "bool",
          "name": "success",
          "type": "bool"
        }
      ],
      "stateMutability": "nonpayable",
      "type": "function"
    },
    {
      "inputs": [
        {
          "internalType": "string",
          "name": "typeTicket",
          "type": "string"
        }
      ],
      "name": "buyTicket",
      "outputs": [
        {
          "components": [
            {
              "internalType": "string",
              "name": "ticketType",
              "type": "string"
            },
            {
              "internalType": "address",
              "name": "owner",
              "type": "address"
            }
          ],
          "internalType": "struct RailRoad.Ticket",
          "name": "ticket",
          "type": "tuple"
        }
      ],
      "stateMutability": "payable",
      "type": "function",
      "payable": true
    },
    {
      "inputs": [],
      "name": "getMyTickets",
      "outputs": [
        {
          "components": [
            {
              "internalType": "string",
              "name": "ticketType",
              "type": "string"
            },
            {
              "internalType": "address",
              "name": "owner",
              "type": "address"
            }
          ],
          "internalType": "struct RailRoad.Ticket[]",
          "name": "",
          "type": "tuple[]"
        }
      ],
      "stateMutability": "view",
      "type": "function",
      "constant": true
    }
  ],
  "bytecode": "0x60806040523480156200001157600080fd5b506040516200330538038062003305833981810160405281019062000037919062000211565b816000806101000a81548173ffffffffffffffffffffffffffffffffffffffff021916908373ffffffffffffffffffffffffffffffffffffffff16021790555081600160006101000a81548173ffffffffffffffffffffffffffffffffffffffff021916908373ffffffffffffffffffffffffffffffffffffffff1602179055508060038190555060016004604051620000d190620002b3565b908152602001604051809103902060006101000a81548160ff0219169083151502179055506001600460405162000108906200031a565b908152602001604051809103902060006101000a81548160ff021916908315150217905550600160046040516200013f9062000381565b908152602001604051809103902060006101000a81548160ff021916908315150217905550505062000398565b600080fd5b600073ffffffffffffffffffffffffffffffffffffffff82169050919050565b60006200019e8262000171565b9050919050565b620001b08162000191565b8114620001bc57600080fd5b50565b600081519050620001d081620001a5565b92915050565b6000819050919050565b620001eb81620001d6565b8114620001f757600080fd5b50565b6000815190506200020b81620001e0565b92915050565b600080604083850312156200022b576200022a6200016c565b5b60006200023b85828601620001bf565b92505060206200024e85828601620001fa565b9150509250929050565b600081905092915050565b7f6275730000000000000000000000000000000000000000000000000000000000600082015250565b60006200029b60038362000258565b9150620002a88262000263565b600382019050919050565b6000620002c0826200028c565b9150819050919050565b7f747261696e000000000000000000000000000000000000000000000000000000600082015250565b60006200030260058362000258565b91506200030f82620002ca565b600582019050919050565b60006200032782620002f3565b9150819050919050565b7f7375627761790000000000000000000000000000000000000000000000000000600082015250565b60006200036960068362000258565b9150620003768262000331565b600682019050919050565b60006200038e826200035a565b9150819050919050565b612f5d80620003a86000396000f3fe6080604052600436106100e85760003560e01c8063b6db75a01161008a578063eaefdbb911610059578063eaefdbb914610307578063ed92c4bb14610344578063f851a4401461036f578063fa30b2511461039a576100e8565b8063b6db75a014610256578063bf87bf3c14610281578063c70f5eaa146102ac578063e1d10d85146102dc576100e8565b8063737acd0d116100c6578063737acd0d1461019157806379e4a5b7146101bc5780638dc10768146101e7578063a0f44c921461022b576100e8565b80631626e7e5146100ed57806350b44712146101165780635c74311114610154575b600080fd5b3480156100f957600080fd5b50610114600480360381019061010f91906122d6565b6103ca565b005b34801561012257600080fd5b5061013d600480360381019061013891906123b7565b6105e8565b60405161014b9291906124ad565b60405180910390f35b34801561016057600080fd5b5061017b600480360381019061017691906124dd565b6106c4565b6040516101889190612541565b60405180910390f35b34801561019d57600080fd5b506101a66106fa565b6040516101b3919061257d565b60405180910390f35b3480156101c857600080fd5b506101d1610720565b6040516101de9190612780565b60405180910390f35b3480156101f357600080fd5b5061020e600480360381019061020991906123b7565b610b65565b6040516102229897969594939291906127b1565b60405180910390f35b34801561023757600080fd5b50610240610d75565b60405161024d9190612844565b60405180910390f35b34801561026257600080fd5b5061026b610d7b565b6040516102789190612541565b60405180910390f35b34801561028d57600080fd5b50610296610dd2565b6040516102a39190612780565b60405180910390f35b6102c660048036038101906102c191906123b7565b6110f4565b6040516102d3919061291d565b60405180910390f35b3480156102e857600080fd5b506102f161157c565b6040516102fe9190612a3e565b60405180910390f35b34801561031357600080fd5b5061032e60048036038101906103299190612a8c565b611872565b60405161033b9190612541565b60405180910390f35b34801561035057600080fd5b50610359611a30565b6040516103669190612780565b60405180910390f35b34801561037b57600080fd5b50610384611e73565b6040516103919190612acc565b60405180910390f35b6103b460048036038101906103af91906124dd565b611e97565b6040516103c19190612b24565b60405180910390f35b60008054906101000a900473ffffffffffffffffffffffffffffffffffffffff1673ffffffffffffffffffffffffffffffffffffffff163373ffffffffffffffffffffffffffffffffffffffff1614610458576040517f08c379a000000000000000000000000000000000000000000000000000000000815260040161044f90612b92565b60405180910390fd5b60005b848110156105c75760006040518061010001604052806005805490508152602001898152602001888152602001868152602001858152602001848152602001600073ffffffffffffffffffffffffffffffffffffffff16815260200160025481525090506005819080600181540180825580915050600190039060005260206000209060080201600090919091909150600082015181600001556020820151816001019080519060200190610511929190612018565b5060408201518160020155606082015181600301556080820151816004019080519060200190610542929190612018565b5060a082015181600501908051906020019061055f929190612018565b5060c08201518160060160006101000a81548173ffffffffffffffffffffffffffffffffffffffff021916908373ffffffffffffffffffffffffffffffffffffffff16021790555060e0820151816007015550505080806105bf90612be1565b91505061045b565b50600260008154809291906105db90612be1565b9190505550505050505050565b600681815481106105f857600080fd5b906000526020600020906002020160009150905080600001805461061b90612c58565b80601f016020809104026020016040519081016040528092919081815260200182805461064790612c58565b80156106945780601f1061066957610100808354040283529160200191610694565b820191906000526020600020905b81548152906001019060200180831161067757829003601f168201915b5050505050908060010160009054906101000a900473ffffffffffffffffffffffffffffffffffffffff16905082565b6004818051602081018201805184825260208301602085012081835280955050505050506000915054906101000a900460ff1681565b600160009054906101000a900473ffffffffffffffffffffffffffffffffffffffff1681565b6060600080600090505b6005805490508110156107d257600073ffffffffffffffffffffffffffffffffffffffff166005828154811061076357610762612c89565b5b906000526020600020906008020160060160009054906101000a900473ffffffffffffffffffffffffffffffffffffffff1673ffffffffffffffffffffffffffffffffffffffff16036107bf5781806107bb90612be1565b9250505b80806107ca90612be1565b91505061072a565b5060008167ffffffffffffffff8111156107ef576107ee612175565b5b60405190808252806020026020018201604052801561082857816020015b61081561209e565b81526020019060019003908161080d5790505b509050600080600090505b600580549050811015610b5b57600073ffffffffffffffffffffffffffffffffffffffff166005828154811061086c5761086b612c89565b5b906000526020600020906008020160060160009054906101000a900473ffffffffffffffffffffffffffffffffffffffff1673ffffffffffffffffffffffffffffffffffffffff1603610b4857600581815481106108cd576108cc612c89565b5b9060005260206000209060080201604051806101000160405290816000820154815260200160018201805461090190612c58565b80601f016020809104026020016040519081016040528092919081815260200182805461092d90612c58565b801561097a5780601f1061094f5761010080835404028352916020019161097a565b820191906000526020600020905b81548152906001019060200180831161095d57829003601f168201915b5050505050815260200160028201548152602001600382015481526020016004820180546109a790612c58565b80601f01602080910402602001604051908101604052809291908181526020018280546109d390612c58565b8015610a205780601f106109f557610100808354040283529160200191610a20565b820191906000526020600020905b815481529060010190602001808311610a0357829003601f168201915b50505050508152602001600582018054610a3990612c58565b80601f0160208091040260200160405190810160405280929190818152602001828054610a6590612c58565b8015610ab25780601f10610a8757610100808354040283529160200191610ab2565b820191906000526020600020905b815481529060010190602001808311610a9557829003601f168201915b505050505081526020016006820160009054906101000a900473ffffffffffffffffffffffffffffffffffffffff1673ffffffffffffffffffffffffffffffffffffffff1673ffffffffffffffffffffffffffffffffffffffff168152602001600782015481525050838381518110610b2e57610b2d612c89565b5b60200260200101819052508180610b4490612be1565b9250505b8080610b5390612be1565b915050610833565b5081935050505090565b60058181548110610b7557600080fd5b9060005260206000209060080201600091509050806000015490806001018054610b9e90612c58565b80601f0160208091040260200160405190810160405280929190818152602001828054610bca90612c58565b8015610c175780601f10610bec57610100808354040283529160200191610c17565b820191906000526020600020905b815481529060010190602001808311610bfa57829003601f168201915b505050505090806002015490806003015490806004018054610c3890612c58565b80601f0160208091040260200160405190810160405280929190818152602001828054610c6490612c58565b8015610cb15780601f10610c8657610100808354040283529160200191610cb1565b820191906000526020600020905b815481529060010190602001808311610c9457829003601f168201915b505050505090806005018054610cc690612c58565b80601f0160208091040260200160405190810160405280929190818152602001828054610cf290612c58565b8015610d3f5780601f10610d1457610100808354040283529160200191610d3f565b820191906000526020600020905b815481529060010190602001808311610d2257829003601f168201915b5050505050908060060160009054906101000a900473ffffffffffffffffffffffffffffffffffffffff16908060070154905088565b60025481565b60008060009054906101000a900473ffffffffffffffffffffffffffffffffffffffff1673ffffffffffffffffffffffffffffffffffffffff163373ffffffffffffffffffffffffffffffffffffffff1614905090565b606060008054906101000a900473ffffffffffffffffffffffffffffffffffffffff1673ffffffffffffffffffffffffffffffffffffffff163373ffffffffffffffffffffffffffffffffffffffff1614610e62576040517f08c379a0000000000000000000000000000000000000000000000000000000008152600401610e5990612b92565b60405180910390fd5b6005805480602002602001604051908101604052809291908181526020016000905b828210156110eb57838290600052602060002090600802016040518061010001604052908160008201548152602001600182018054610ec290612c58565b80601f0160208091040260200160405190810160405280929190818152602001828054610eee90612c58565b8015610f3b5780601f10610f1057610100808354040283529160200191610f3b565b820191906000526020600020905b815481529060010190602001808311610f1e57829003601f168201915b505050505081526020016002820154815260200160038201548152602001600482018054610f6890612c58565b80601f0160208091040260200160405190810160405280929190818152602001828054610f9490612c58565b8015610fe15780601f10610fb657610100808354040283529160200191610fe1565b820191906000526020600020905b815481529060010190602001808311610fc457829003601f168201915b50505050508152602001600582018054610ffa90612c58565b80601f016020809104026020016040519081016040528092919081815260200182805461102690612c58565b80156110735780601f1061104857610100808354040283529160200191611073565b820191906000526020600020905b81548152906001019060200180831161105657829003601f168201915b505050505081526020016006820160009054906101000a900473ffffffffffffffffffffffffffffffffffffffff1673ffffffffffffffffffffffffffffffffffffffff1673ffffffffffffffffffffffffffffffffffffffff16815260200160078201548152505081526020019060010190610e84565b50505050905090565b6110fc61209e565b60005b60058054905081101561153457826005828154811061112157611120612c89565b5b9060005260206000209060080201600001540361152157600073ffffffffffffffffffffffffffffffffffffffff166005828154811061116457611163612c89565b5b906000526020600020906008020160060160009054906101000a900473ffffffffffffffffffffffffffffffffffffffff1673ffffffffffffffffffffffffffffffffffffffff16146111ec576040517f08c379a00000000000000000000000000000000000000000000000000000000081526004016111e390612d04565b60405180910390fd5b346005828154811061120157611200612c89565b5b90600052602060002090600802016002015414611253576040517f08c379a000000000000000000000000000000000000000000000000000000000815260040161124a90612d70565b60405180910390fd5b336005828154811061126857611267612c89565b5b906000526020600020906008020160060160006101000a81548173ffffffffffffffffffffffffffffffffffffffff021916908373ffffffffffffffffffffffffffffffffffffffff160217905550600581815481106112cb576112ca612c89565b5b906000526020600020906008020160405180610100016040529081600082015481526020016001820180546112ff90612c58565b80601f016020809104026020016040519081016040528092919081815260200182805461132b90612c58565b80156113785780601f1061134d57610100808354040283529160200191611378565b820191906000526020600020905b81548152906001019060200180831161135b57829003601f168201915b5050505050815260200160028201548152602001600382015481526020016004820180546113a590612c58565b80601f01602080910402602001604051908101604052809291908181526020018280546113d190612c58565b801561141e5780601f106113f35761010080835404028352916020019161141e565b820191906000526020600020905b81548152906001019060200180831161140157829003601f168201915b5050505050815260200160058201805461143790612c58565b80601f016020809104026020016040519081016040528092919081815260200182805461146390612c58565b80156114b05780601f10611485576101008083540402835291602001916114b0565b820191906000526020600020905b81548152906001019060200180831161149357829003601f168201915b505050505081526020016006820160009054906101000a900473ffffffffffffffffffffffffffffffffffffffff1673ffffffffffffffffffffffffffffffffffffffff1673ffffffffffffffffffffffffffffffffffffffff168152602001600782015481525050915050611577565b808061152c90612be1565b9150506110ff565b506000611576576040517f08c379a000000000000000000000000000000000000000000000000000000000815260040161156d90612ddc565b60405180910390fd5b5b919050565b6060600080600090505b60068054905081101561162d573373ffffffffffffffffffffffffffffffffffffffff16600682815481106115be576115bd612c89565b5b906000526020600020906002020160010160009054906101000a900473ffffffffffffffffffffffffffffffffffffffff1673ffffffffffffffffffffffffffffffffffffffff160361161a57818061161690612be1565b9250505b808061162590612be1565b915050611586565b5060008167ffffffffffffffff81111561164a57611649612175565b5b60405190808252806020026020018201604052801561168357816020015b6116706120f9565b8152602001906001900390816116685790505b509050600080600090505b600680549050811015611868573373ffffffffffffffffffffffffffffffffffffffff16600682815481106116c6576116c5612c89565b5b906000526020600020906002020160010160009054906101000a900473ffffffffffffffffffffffffffffffffffffffff1673ffffffffffffffffffffffffffffffffffffffff1603611855576006818154811061172757611726612c89565b5b906000526020600020906002020160405180604001604052908160008201805461175090612c58565b80601f016020809104026020016040519081016040528092919081815260200182805461177c90612c58565b80156117c95780601f1061179e576101008083540402835291602001916117c9565b820191906000526020600020905b8154815290600101906020018083116117ac57829003601f168201915b505050505081526020016001820160009054906101000a900473ffffffffffffffffffffffffffffffffffffffff1673ffffffffffffffffffffffffffffffffffffffff1673ffffffffffffffffffffffffffffffffffffffff168152505083838151811061183b5761183a612c89565b5b6020026020010181905250818061185190612be1565b9250505b808061186090612be1565b91505061168e565b5081935050505090565b600080600090505b6005805490508110156119e757836005828154811061189c5761189b612c89565b5b906000526020600020906008020160000154036119d4573373ffffffffffffffffffffffffffffffffffffffff16600582815481106118de576118dd612c89565b5b906000526020600020906008020160060160009054906101000a900473ffffffffffffffffffffffffffffffffffffffff1673ffffffffffffffffffffffffffffffffffffffff1614611966576040517f08c379a000000000000000000000000000000000000000000000000000000000815260040161195d90612e48565b60405180910390fd5b826005828154811061197b5761197a612c89565b5b906000526020600020906008020160060160006101000a81548173ffffffffffffffffffffffffffffffffffffffff021916908373ffffffffffffffffffffffffffffffffffffffff1602179055506001915050611a2a565b80806119df90612be1565b91505061187a565b506000611a29576040517f08c379a0000000000000000000000000000000000000000000000000000000008152600401611a2090612ddc565b60405180910390fd5b5b92915050565b6060600080600090505b600580549050811015611ae1573373ffffffffffffffffffffffffffffffffffffffff1660058281548110611a7257611a71612c89565b5b906000526020600020906008020160060160009054906101000a900473ffffffffffffffffffffffffffffffffffffffff1673ffffffffffffffffffffffffffffffffffffffff1603611ace578180611aca90612be1565b9250505b8080611ad990612be1565b915050611a3a565b5060008167ffffffffffffffff811115611afe57611afd612175565b5b604051908082528060200260200182016040528015611b3757816020015b611b2461209e565b815260200190600190039081611b1c5790505b509050600080600090505b600580549050811015611e69573373ffffffffffffffffffffffffffffffffffffffff1660058281548110611b7a57611b79612c89565b5b906000526020600020906008020160060160009054906101000a900473ffffffffffffffffffffffffffffffffffffffff1673ffffffffffffffffffffffffffffffffffffffff1603611e565760058181548110611bdb57611bda612c89565b5b90600052602060002090600802016040518061010001604052908160008201548152602001600182018054611c0f90612c58565b80601f0160208091040260200160405190810160405280929190818152602001828054611c3b90612c58565b8015611c885780601f10611c5d57610100808354040283529160200191611c88565b820191906000526020600020905b815481529060010190602001808311611c6b57829003601f168201915b505050505081526020016002820154815260200160038201548152602001600482018054611cb590612c58565b80601f0160208091040260200160405190810160405280929190818152602001828054611ce190612c58565b8015611d2e5780601f10611d0357610100808354040283529160200191611d2e565b820191906000526020600020905b815481529060010190602001808311611d1157829003601f168201915b50505050508152602001600582018054611d4790612c58565b80601f0160208091040260200160405190810160405280929190818152602001828054611d7390612c58565b8015611dc05780601f10611d9557610100808354040283529160200191611dc0565b820191906000526020600020905b815481529060010190602001808311611da357829003601f168201915b505050505081526020016006820160009054906101000a900473ffffffffffffffffffffffffffffffffffffffff1673ffffffffffffffffffffffffffffffffffffffff1673ffffffffffffffffffffffffffffffffffffffff168152602001600782015481525050838381518110611e3c57611e3b612c89565b5b60200260200101819052508180611e5290612be1565b9250505b8080611e6190612be1565b915050611b42565b5081935050505090565b60008054906101000a900473ffffffffffffffffffffffffffffffffffffffff1681565b611e9f6120f9565b3460035414611ee3576040517f08c379a0000000000000000000000000000000000000000000000000000000008152600401611eda90612d70565b60405180910390fd5b600482604051611ef39190612ea4565b908152602001604051809103902060009054906101000a900460ff16611f4e576040517f08c379a0000000000000000000000000000000000000000000000000000000008152600401611f4590612f07565b60405180910390fd5b600060405180604001604052808481526020013373ffffffffffffffffffffffffffffffffffffffff16815250905060068190806001815401808255809150506001900390600052602060002090600202016000909190919091506000820151816000019080519060200190611fc5929190612018565b5060208201518160010160006101000a81548173ffffffffffffffffffffffffffffffffffffffff021916908373ffffffffffffffffffffffffffffffffffffffff160217905550505080915050919050565b82805461202490612c58565b90600052602060002090601f016020900481019282612046576000855561208d565b82601f1061205f57805160ff191683800117855561208d565b8280016001018555821561208d579182015b8281111561208c578251825591602001919060010190612071565b5b50905061209a9190612129565b5090565b604051806101000160405280600081526020016060815260200160008152602001600081526020016060815260200160608152602001600073ffffffffffffffffffffffffffffffffffffffff168152602001600081525090565b604051806040016040528060608152602001600073ffffffffffffffffffffffffffffffffffffffff1681525090565b5b8082111561214257600081600090555060010161212a565b5090565b6000604051905090565b600080fd5b600080fd5b600080fd5b600080fd5b6000601f19601f8301169050919050565b7f4e487b7100000000000000000000000000000000000000000000000000000000600052604160045260246000fd5b6121ad82612164565b810181811067ffffffffffffffff821117156121cc576121cb612175565b5b80604052505050565b60006121df612146565b90506121eb82826121a4565b919050565b600067ffffffffffffffff82111561220b5761220a612175565b5b61221482612164565b9050602081019050919050565b82818337600083830152505050565b600061224361223e846121f0565b6121d5565b90508281526020810184848401111561225f5761225e61215f565b5b61226a848285612221565b509392505050565b600082601f8301126122875761228661215a565b5b8135612297848260208601612230565b91505092915050565b6000819050919050565b6122b3816122a0565b81146122be57600080fd5b50565b6000813590506122d0816122aa565b92915050565b60008060008060008060c087890312156122f3576122f2612150565b5b600087013567ffffffffffffffff81111561231157612310612155565b5b61231d89828a01612272565b965050602061232e89828a016122c1565b955050604061233f89828a016122c1565b945050606061235089828a016122c1565b935050608087013567ffffffffffffffff81111561237157612370612155565b5b61237d89828a01612272565b92505060a087013567ffffffffffffffff81111561239e5761239d612155565b5b6123aa89828a01612272565b9150509295509295509295565b6000602082840312156123cd576123cc612150565b5b60006123db848285016122c1565b91505092915050565b600081519050919050565b600082825260208201905092915050565b60005b8381101561241e578082015181840152602081019050612403565b8381111561242d576000848401525b50505050565b600061243e826123e4565b61244881856123ef565b9350612458818560208601612400565b61246181612164565b840191505092915050565b600073ffffffffffffffffffffffffffffffffffffffff82169050919050565b60006124978261246c565b9050919050565b6124a78161248c565b82525050565b600060408201905081810360008301526124c78185612433565b90506124d6602083018461249e565b9392505050565b6000602082840312156124f3576124f2612150565b5b600082013567ffffffffffffffff81111561251157612510612155565b5b61251d84828501612272565b91505092915050565b60008115159050919050565b61253b81612526565b82525050565b60006020820190506125566000830184612532565b92915050565b60006125678261246c565b9050919050565b6125778161255c565b82525050565b6000602082019050612592600083018461256e565b92915050565b600081519050919050565b600082825260208201905092915050565b6000819050602082019050919050565b6125cd816122a0565b82525050565b600082825260208201905092915050565b60006125ef826123e4565b6125f981856125d3565b9350612609818560208601612400565b61261281612164565b840191505092915050565b6126268161248c565b82525050565b60006101008301600083015161264560008601826125c4565b506020830151848203602086015261265d82826125e4565b915050604083015161267260408601826125c4565b50606083015161268560608601826125c4565b506080830151848203608086015261269d82826125e4565b91505060a083015184820360a08601526126b782826125e4565b91505060c08301516126cc60c086018261261d565b5060e08301516126df60e08601826125c4565b508091505092915050565b60006126f6838361262c565b905092915050565b6000602082019050919050565b600061271682612598565b61272081856125a3565b935083602082028501612732856125b4565b8060005b8581101561276e578484038952815161274f85826126ea565b945061275a836126fe565b925060208a01995050600181019050612736565b50829750879550505050505092915050565b6000602082019050818103600083015261279a818461270b565b905092915050565b6127ab816122a0565b82525050565b6000610100820190506127c7600083018b6127a2565b81810360208301526127d9818a612433565b90506127e860408301896127a2565b6127f560608301886127a2565b81810360808301526128078187612433565b905081810360a083015261281b8186612433565b905061282a60c083018561249e565b61283760e08301846127a2565b9998505050505050505050565b600060208201905061285960008301846127a2565b92915050565b60006101008301600083015161287860008601826125c4565b506020830151848203602086015261289082826125e4565b91505060408301516128a560408601826125c4565b5060608301516128b860608601826125c4565b50608083015184820360808601526128d082826125e4565b91505060a083015184820360a08601526128ea82826125e4565b91505060c08301516128ff60c086018261261d565b5060e083015161291260e08601826125c4565b508091505092915050565b60006020820190508181036000830152612937818461285f565b905092915050565b600081519050919050565b600082825260208201905092915050565b6000819050602082019050919050565b6000604083016000830151848203600086015261298882826125e4565b915050602083015161299d602086018261261d565b508091505092915050565b60006129b4838361296b565b905092915050565b6000602082019050919050565b60006129d48261293f565b6129de818561294a565b9350836020820285016129f08561295b565b8060005b85811015612a2c5784840389528151612a0d85826129a8565b9450612a18836129bc565b925060208a019950506001810190506129f4565b50829750879550505050505092915050565b60006020820190508181036000830152612a5881846129c9565b905092915050565b612a698161248c565b8114612a7457600080fd5b50565b600081359050612a8681612a60565b92915050565b60008060408385031215612aa357612aa2612150565b5b6000612ab1858286016122c1565b9250506020612ac285828601612a77565b9150509250929050565b6000602082019050612ae1600083018461249e565b92915050565b60006040830160008301518482036000860152612b0482826125e4565b9150506020830151612b19602086018261261d565b508091505092915050565b60006020820190508181036000830152612b3e8184612ae7565b905092915050565b7f596f75277265206e6f74207468652061646d696e000000000000000000000000600082015250565b6000612b7c6014836123ef565b9150612b8782612b46565b602082019050919050565b60006020820190508181036000830152612bab81612b6f565b9050919050565b7f4e487b7100000000000000000000000000000000000000000000000000000000600052601160045260246000fd5b6000612bec826122a0565b91507fffffffffffffffffffffffffffffffffffffffffffffffffffffffffffffffff8203612c1e57612c1d612bb2565b5b600182019050919050565b7f4e487b7100000000000000000000000000000000000000000000000000000000600052602260045260246000fd5b60006002820490506001821680612c7057607f821691505b602082108103612c8357612c82612c29565b5b50919050565b7f4e487b7100000000000000000000000000000000000000000000000000000000600052603260045260246000fd5b7f43617264206e6f7420617661696c61626c650000000000000000000000000000600082015250565b6000612cee6012836123ef565b9150612cf982612cb8565b602082019050919050565b60006020820190508181036000830152612d1d81612ce1565b9050919050565b7f50726f626c656d652064616e73206c6520706169656d656e7400000000000000600082015250565b6000612d5a6019836123ef565b9150612d6582612d24565b602082019050919050565b60006020820190508181036000830152612d8981612d4d565b9050919050565b7f4361726420646f65736e74206578697374000000000000000000000000000000600082015250565b6000612dc66011836123ef565b9150612dd182612d90565b602082019050919050565b60006020820190508181036000830152612df581612db9565b9050919050565b7f43617264206e6f7420796f757273000000000000000000000000000000000000600082015250565b6000612e32600e836123ef565b9150612e3d82612dfc565b602082019050919050565b60006020820190508181036000830152612e6181612e25565b9050919050565b600081905092915050565b6000612e7e826123e4565b612e888185612e68565b9350612e98818560208601612400565b80840191505092915050565b6000612eb08284612e73565b915081905092915050565b7f43652074797065206465207469636b6574206e27657869737465207061730000600082015250565b6000612ef1601e836123ef565b9150612efc82612ebb565b602082019050919050565b60006020820190508181036000830152612f2081612ee4565b905091905056fea264697066735822122012589d916fbc2145fd6e1a36d3a18c3da114233f7192be1224a3eb3c73e1c82164736f6c634300080d0033",
  "immutableReferences": {},
  "source": "// SPDX-License-Identifier: UNLICENSED\r\npragma solidity ^0.8.13;\r\n\r\ncontract RailRoad {\r\n    address public admin;\r\n    address payable public adminPayble;\r\n    uint public groupId;\r\n    uint ticketPrice;\r\n    mapping (string => bool) public TicketTypes;\r\n\r\n    Card[] public cards;\r\n    Ticket[] public tickets;\r\n\r\n    struct Card {\r\n        uint id;\r\n        string name;\r\n        uint price;\r\n        uint discount;\r\n        string image;\r\n        string description;\r\n        address owner;\r\n        uint groupId;\r\n    }\r\n\r\n    struct Ticket {\r\n        string ticketType;\r\n        address owner;\r\n    }\r\n\r\n    modifier onlyAdmin() {\r\n        require(msg.sender == admin, \"You're not the admin\");\r\n        _;\r\n    }\r\n\r\n    constructor(address _admin, uint _ticketPrice) {\r\n        admin = _admin;\r\n        adminPayble = payable(_admin);\r\n        ticketPrice = _ticketPrice;\r\n\r\n        // Tickets types\r\n        TicketTypes[\"bus\"]=true;\r\n        TicketTypes[\"train\"]=true;\r\n        TicketTypes[\"subway\"]=true;\r\n    }\r\n\r\n    function isAdmin() public view returns (bool) {\r\n        return msg.sender == admin;\r\n    }\r\n\r\n    /**************\r\n         CARDS\r\n    **************/\r\n\r\n    function createCard(string memory name, uint price, uint count, uint discount, string memory image, string memory description) external onlyAdmin {\r\n        for (uint i = 0; i < count; i++) {\r\n            Card memory newCard = Card(cards.length, name, price, discount, image, description, address(0), groupId);\r\n            cards.push(newCard);\r\n        }\r\n        groupId++;\r\n    }\r\n\r\n    function getMyCards() public view returns (Card[] memory) {\r\n        uint count;\r\n        for (uint i = 0; i < cards.length; i++) {\r\n            if (cards[i].owner == msg.sender) {\r\n                count++;\r\n            }\r\n        }\r\n\r\n        Card[] memory myCards = new Card[](count);\r\n        uint256 j;\r\n        for (uint i = 0; i < cards.length; i++) {\r\n            if (cards[i].owner == msg.sender) {\r\n                myCards[j] = cards[i];\r\n                j++;\r\n            }\r\n        }\r\n\r\n        return myCards;\r\n    }\r\n\r\n    function getAvailableCards() public view returns (Card[] memory) {\r\n        uint count;\r\n        for (uint i = 0; i < cards.length; i++) {\r\n            if (cards[i].owner == address(0)) {\r\n                count++;\r\n            }\r\n        }\r\n\r\n        Card[] memory availableCards = new Card[](count);\r\n        uint256 j;\r\n        for (uint i = 0; i < cards.length; i++) {\r\n            if (cards[i].owner == address(0)) {\r\n                availableCards[j] = cards[i];\r\n                j++;\r\n            }\r\n        }\r\n\r\n        return availableCards;\r\n    }\r\n\r\n    function retrieveAllCards() external view onlyAdmin returns (Card[] memory){\r\n        return cards;\r\n    }\r\n\r\n    function buyCard(uint id) external payable returns (Card memory card) {\r\n        for(uint i = 0; i < cards.length; i++) {\r\n            if (cards[i].id == id) {\r\n                require(cards[i].owner == address(0), \"Card not available\");\r\n                require(cards[i].price == msg.value, \"Probleme dans le paiement\");\r\n                cards[i].owner = msg.sender;\r\n                return cards[i];\r\n\r\n                //(bool sent, bytes memory data) = adminPayble.call{value: 1000000000000000000}(\"\");\r\n                //require(sent, \"Failed to send Ether\");\r\n            }\r\n        }\r\n        require(false, \"Card doesnt exist\");\r\n    }\r\n\r\n    function giveCard(uint id, address userToGive) external returns (bool success) {\r\n        for(uint i = 0; i < cards.length; i++) {\r\n            if (cards[i].id == id) {\r\n                require(cards[i].owner == msg.sender, \"Card not yours\");\r\n                cards[i].owner = userToGive;\r\n                return true;\r\n            }\r\n        }\r\n        require(false, \"Card doesnt exist\");\r\n    }\r\n\r\n    /**************\r\n        TICKETS\r\n    **************/\r\n\r\n    function buyTicket(string memory typeTicket) external payable returns (Ticket memory ticket) {\r\n        require(ticketPrice == msg.value, \"Probleme dans le paiement\");\r\n        require(TicketTypes[typeTicket], \"Ce type de ticket n'existe pas\");\r\n        Ticket memory newTicket = Ticket(typeTicket, msg.sender);\r\n        tickets.push(newTicket);\r\n\r\n        return newTicket;\r\n    }\r\n\r\n    function getMyTickets() public view returns (Ticket[] memory) {\r\n        uint count;\r\n        for (uint i = 0; i < tickets.length; i++) {\r\n            if (tickets[i].owner == msg.sender) {\r\n                count++;\r\n            }\r\n        }\r\n\r\n        Ticket[] memory myTickets = new Ticket[](count);\r\n        uint256 j;\r\n        for (uint i = 0; i < tickets.length; i++) {\r\n            if (tickets[i].owner == msg.sender) {\r\n                myTickets[j] = tickets[i];\r\n                j++;\r\n            }\r\n        }\r\n        return myTickets;\r\n    }\r\n}",
  "sourcePath": "/Users/clement/Desktop/supinfo/M.ENG2/5BLOC/truffle/contracts/railRoad.sol",
  "compiler": {
    "name": "solc",
    "version": "0.8.13+commit.abaa5c0e.Emscripten.clang"
  },
  "schemaVersion": "3.4.11",
  "updatedAt": "2022-12-08T09:37:56.807Z",
  "networkType": "ethereum",
  "devdoc": {
    "kind": "dev",
    "methods": {},
    "version": 1
  },
  "userdoc": {
    "kind": "user",
    "methods": {},
    "version": 1
  }
}